S01000004D6F6474616765722E73726563E1
S113000071C000008EC000008CC000008AC00000D7
S113001088C00000DBC0000084C0000082C0000073
S113002080C000007EC000007CC000007AC00000D8
S113003078C0000076C0000074C0000072C00000E8
S113004070C000006EC000006CC000006AC00000F8
S113005068C0000066C0000064C0000062C0000008
S113006060C000005EC000005CC000005AC0000018
S113007058C0000056C0000054C0000052C0000028
S113008050C000004EC000004CC000004AC0000038
S113009048C0000046C0000044C0000042C0000048
S11300A040C000003EC000003CC000003AC0000058
S11300B038C0000036C0000034C0000032C0000068
S11300C030C000002EC000002CC000002AC0000078
S11300D028C0000026C0000024C0000022C0000088
S11300E020C0000011241FBECFEFD1E2DEBFCDBF80
S11300F000E00CBF13E0A0E0B2E0EEEAF4E000E0C0
S11301000BBF02C007900D92A832B107D9F723E0C4
S1130110A8E2B3E001C01D92AA32B207E1F702D00F
S1130120C4C16ECFCF93DF93CDB7DEB7EA970FB6D6
S1130130F894DEBF0FBECDBFEAE6F0E080818360B5
S113014080838DB380618DBB789484B184B985B18B
S113015085B9CE0101964FD01A821B821C8281E0A0
S11301608D83BE016E5F7F4FCE01069666D080916F
S1130170280390912903892BD1F365B1CE0106960A
S1130180EBD0CE0106966AD0882329F0CE010696DC
S113019033D1182F01C011E61F3429F462EF72E045
S11301A0CE01019638D0133429F464E073E0CE0113
S11301B0019631D0183429F466E173E0CE0101963A
S11301C02AD01092290310922803D1CF1F920F92A4
S11301D00FB60F9211248F939F9381E090E0909338
S11301E02903809328031CBA9F918F910F900FBE0F
S11301F00F901F9018951092C50087E68093C40055
S113020088E18093C10008958091C00085FFFCCFF0
S11302106093C60008950F931F93CF93DF938C01CF
S1130220EB016881662321F0C801EEDF2196F9CF46
S1130230DF91CF911F910F910895DC0190E09430EC
S113024060F4292F30E0FB01E20FF31F4081FD0130
S1130250E20FF31F41AB9F5FF2CF0895CF93DF937B
S1130260CDB7DEB728970FB6F894DEBF0FBECDBF6B
S113027028E0EAEEF2E0DE01119601900D922A9553
S1130280E1F7643018F5262F30E0FC01E20FF31F8C
S1130290408150E0F901EE0FFF1FA1E0B0E0AC0F88
S11302A0BD1FEA0FFB1F0190F081E02D4E175F0781
S11302B079F4F9013496E80FF91F4081FC01E20F4B
S11302C0F31F21A9421306C06F5FDBCF81E003C097
S11302D080E001C080E028960FB6F894DEBF0FBE20
S11302E0CDBFDF91CF910895DC01D0961C92D097B9
S11302F090E080E09F3178F5292F30E0FD01E20F96
S1130300F31F408941110DC0F9013196EA0FFB1F1B
S11303104089413031F421E0FD01E80FF11D2083D3
S113032017C0FD01E20FF31F4089413069F42F5FCC
S11303303F4FFD01E20FF31F2089211105C0FD018C
S1130340E80FF11D108204C021E0D0962C93D097C1
S11303508F5F9E5FCFCF0895CF93DF93CDB7DEB786
S1130360A0970FB6F894DEBF0FBECDBFAC0190E0EE
S11303709F3180F4292F30E0F9013196E40FF51F05
S11303808089E1E0F0E0EC0FFD1FE20FF31F8083B2
S11303909F5FEECF90E0903278F4292F30E0E1E0D7
S11303A0F0E0EC0FFD1FE20FF31F8081FA01E20F72
S11303B0F31F808B9F5FEFCFCA0196DFA0960FB625
S11303C0F894DEBF0FBECDBFDF91CF91089580E0DA
S11303D090E08830910564F4FB01E80FF91F308147
S11303E0FA01E80FF91F2081321304C00196F1CFFE
S11303F081E0089580E00895CF92DF92EF92FF921A
S11304001F93CF93DF93CDB7DEB728970FB6F89439
S1130410DEBF0FBECDBF7C0128E0203188F4822FDF
S113042090E0FC013897D701A80FB91F8C9141E0E7
S113043050E04C0F5D1FE40FF51F80832F5FEDCF5D
S113044010E01B3118F5C12ED12CB601660F771FB1
S1130450660F771F660F771F6C0D7D1D6F5F7D4FD5
S1130460AE014F5F5F4FC701B2DF882369F0F60129
S1130470EE0FFF1FEE0FFF1FEE0FFF1FEC0DFD1D14
S1130480E050FE4F808103C01F5FDBCF81E62896DA
S11304900FB6F894DEBF0FBECDBFDF91CF911F9191
S11104A0FF90EF90DF90CF900895F894FFCF77
S11304AE41000100000000000142000100000000B4
S11304BE010043000100000000010144000100009E
S11304CE000100004500010000000100014600018A
S11304DE0000000101004700010000000101014875
S11304EE00010000010000004900010000010000AD
S11304FE014A00010000010001004B00010000014F
S113050E0001014C00010000010100004D0001003A
S113051E00010100014E00010000010101004F0025
S113052E0100000101010150000100010000000062
S113053E5100010001000000015200010001000001
S113054E01005300010001000001015400010001EB
S113055E00010000550001000100010001560001D8
S113056E00010001010057000100010001010158C2
S113057E000100010100000059000100010100000A
S113058E015A0001000101000100010001000100F7
S113059E00004D4F44544F47204B4F4D4D414E4458
S11305AE4F204F004D4F44544F47204B4F4D4D411C
S11305BE4E444F2043004D4F44544F47204B4F4D14
S10B05CE4D414E444F2048004A
S9030000FC
