:1000000071C000008EC000008CC000008AC00000DB
:1000100088C000001DC1000084C0000082C0000034
:1000200080C000007EC000007CC000007AC00000DC
:1000300078C0000076C0000074C0000072C00000EC
:1000400070C000006EC000006CC000006AC00000FC
:1000500068C0000066C0000064C0000062C000000C
:1000600060C000005EC000005CC000005AC000001C
:1000700058C0000056C0000054C0000052C000002C
:1000800050C000004EC000004CC000004AC000003C
:1000900048C0000046C0000044C0000042C000004C
:1000A00040C000003EC000003CC000003AC000005C
:1000B00038C0000036C0000034C0000032C000006C
:1000C00030C000002EC000002CC000002AC000007C
:1000D00028C0000026C0000024C0000022C000008C
:1000E00020C0000011241FBECFEFD1E2DEBFCDBF84
:1000F00000E00CBF13E0A0E0B2E0ECE2FBE000E0C7
:100100000BBF02C007900D92A634B107D9F723E0C8
:10011000A6E4B3E001C01D92A834B207E1F702D013
:1001200003C56ECFCF93DF93CDB7DEB7C554D109EA
:100130000FB6F894DEBF0FBECDBFEAE6F0E08081D7
:10014000836080838DB380618DBB789484B18F7D13
:1001500084B984B1806184B984B1806484B984B184
:10016000806884B9CE010196A7D062EF72E0CE011B
:100170000196B2D01A821B821C8281E08D83BE015F
:100180006E5F7F4FCE010696B9D0CE01CB9675D06B
:1001900000E080914603909147030197D1F78FEAE1
:1001A00094E00197F1F700C000001D9B02C061E0E0
:1001B00001C060E0CE01069632D1CE010696AFD0E6
:1001C000882329F0CE0106967BD1182F01C011E6B5
:1001D0001F3429F56BEF72E0CE0101967DD0CE0180
:1001E000CB964CD00F5F1F920F938FE093E09F93BD
:1001F0008F937E019CE3E90EF11CFF92EF92B9D13F
:1002000062E173E0CE01019667D0B701CE0101969D
:1002100063D00F900F900F900F900F900F901334AA
:1002200041F46DE173E0CE01019656D0CE01CB963C
:1002300039D0183441F461E373E0CE0101964CD01B
:10024000CE01CB9625D01092470310924603A1CF42
:100250001F920F920FB60F9211248F939F9381E0FC
:1002600090E090934703809346031CBA9F918F912F
:100270000F900FBE0F901F901895089585B1806163
:1002800085B985B18F7B85B985B18F7785B908959B
:1002900085B1806485B985B18F7E85B985B18F7749
:1002A00085B9089585B1806885B985B18F7B85B999
:1002B00085B18F7E85B908951092C50087E6809339
:1002C000C40088E18093C10008958091C00085FF3B
:1002D000FCCF6093C60008950F931F93CF93DF93D5
:1002E0008C01EB016881662321F0C801EEDF2196C5
:1002F000F9CFDF91CF911F910F910895DC0190E02C
:10030000943060F4292F30E0FB01E20FF31F4081AD
:10031000FD01E20FF31F41AB9F5FF2CF0895CF9332
:10032000DF93CDB7DEB728970FB6F894DEBF0FBEC8
:10033000CDBFBC0188E0EAEEF2E0DE01119601904B
:100340000D928A95E1F790E0943018F5292F30E06E
:10035000FB01E20FF31F408150E0F901EE0FFF1F98
:10036000A1E0B0E0AC0FBD1FEA0FFB1F0190F081D0
:10037000E02D4E175F0779F4F9013496E60FF71F69
:100380004081FB01E20FF31F81A9481306C09F5F64
:10039000DBCF81E003C080E001C080E028960FB68B
:1003A000F894DEBF0FBECDBFDF91CF910895DC0181
:1003B000D0961C92D09790E080E09F3178F5292F5D
:1003C00030E0FD01E20FF31F408941110DC0F9013A
:1003D0003196EA0FFB1F4089413031F421E0FD01E5
:1003E000E80FF11D208317C0FD01E20FF31F4089C4
:1003F000413069F42F5F3F4FFD01E20FF31F208969
:10040000211105C0FD01E80FF11D108204C021E09B
:10041000D0962C93D0978F5F9E5FCFCF0895CF93C8
:10042000DF93CDB7DEB7A0970FB6F894DEBF0FBE4F
:10043000CDBFAC0190E09F3180F4292F30E0F9016D
:100440003196E40FF51F8089E1E0F0E0EC0FFD1F2D
:10045000E20FF31F80839F5FEECF68A390E090329E
:1004600078F4292F30E0E1E0F0E0EC0FFD1FE20F1F
:10047000F31F8081FA01E20FF31F808B9F5FEFCFA4
:10048000CA0195DFA0960FB6F894DEBF0FBECDBFB0
:10049000DF91CF91089580E090E08830910564F479
:1004A000FB01E80FF91F3081FA01E80FF91F2081E5
:1004B000321304C00196F1CF81E0089580E00895E1
:1004C000CF92DF92EF92FF921F93CF93DF93CDB73E
:1004D000DEB728970FB6F894DEBF0FBECDBF7C0104
:1004E00028E0203188F4822F90E0FC013897D70172
:1004F000A80FB91F8C9141E050E04C0F5D1FE40F35
:10050000F51F80832F5FEDCF10E01B3118F5C12E52
:10051000D12CB601660F771F660F771F660F771F06
:100520006C0D7D1D6F5F7D4FAE014F5F5F4FC7014B
:10053000B2DF882369F0F601EE0FFF1FEE0FFF1FF9
:10054000EE0FFF1FEC0DFD1DE050FE4F808103C03C
:100550001F5FDBCF81E628960FB6F894DEBF0FBE93
:10056000CDBFDF91CF911F91FF90EF90DF90CF90A3
:1005700008950F931F93CF93DF93CDB7DEB72E97D8
:100580000FB6F894DEBF0FBECDBF0E891F8986E07F
:100590008C831A8309838FEF9FE79E838D83AE013F
:1005A000465E5F4F688D798DCE01019610D0EF8148
:1005B000F885E00FF11F10822E960FB6F894DEBF7B
:1005C0000FBECDBFDF91CF911F910F9108952F9254
:1005D0003F924F925F926F927F928F929F92AF92D3
:1005E000BF92CF92DF92EF92FF920F931F93CF9320
:1005F000DF93CDB7DEB72B970FB6F894DEBF0FBEF3
:10060000CDBF6C017B018A01FC01178216828381B8
:1006100081FFBFC1CE0101963C01F6019381F70134
:1006200093FD859193FF81917F01882309F4ADC1EA
:10063000853239F493FD859193FF81917F01853255
:1006400021F4B60190E0D6D1E8CF912C212C312CA9
:10065000FFE1F315D8F08B3279F038F4803279F07D
:100660008332A1F4232D20611DC08D3261F08033CF
:1006700069F4232D216016C0832D8260382EE32D6E
:10068000E4603E2E2AC0F32DF8601DC037FC2DC05B
:1006900020ED280F2A3040F08E32B9F436FC75C1B7
:1006A000232D2064322E19C036FE06C08AE0989EA3
:1006B000200D1124922E11C0EAE02E9E200D11244F
:1006C000222EF32DF0623F2E08C08C3621F4832DAC
:1006D0008068382E02C0883641F4F70193FD859179
:1006E00093FF81917F018111B3CF982F9F7D955406
:1006F000933028F40C5F1F4F9FE399830DC083361E
:1007000031F0833771F0833509F055C020C0F8010E
:10071000808189830E5F1F4F88248394912C53011D
:1007200012C02801F2E04F0E511CF801A080B180E8
:1007300036FE03C0692D70E002C06FEF7FEFC50188
:100740004ED14C018201F32DFF773F2E15C02801B9
:1007500022E0420E511CF801A080B18036FE03C099
:10076000692D70E002C06FEF7FEFC5012DD14C0104
:10077000F32DF0683F2E820133FC19C0822D90E0EA
:1007800088169906A0F4B60180E290E033D12A944D
:10079000F5CFF50137FC859137FE81915F01B601F8
:1007A00090E028D121102A9421E0821A9108811426
:1007B000910479F7E1C0843611F0893639F5F801F2
:1007C00037FE07C060817181828193810C5F1F4F6A
:1007D00008C060817181072E000C880B990B0E5F99
:1007E0001F4FF32DFF763F2E97FF09C09095809500
:1007F000709561957F4F8F4F9F4FF0683F2E2AE095
:1008000030E0A30133D1882E861844C0853731F4F7
:10081000232D2F7EB22E2AE030E025C0932D997F24
:10082000B92E8F36C1F018F4883579F0AEC0803714
:1008300019F0883721F0A9C0E92FE061BE2EB4FE7F
:100840000DC0FB2DF460BF2E09C034FE0AC0292F55
:100850002660B22E06C028E030E005C020E130E07E
:1008600002C020E132E0F801B7FE07C0608171816B
:10087000828193810C5F1F4F06C06081718180E08F
:1008800090E00E5F1F4FA301F1D0882E8618FB2D3C
:10089000FF773F2E36FE0DC0232D2E7FA22E89140A
:1008A00058F434FE0BC032FC09C0832D8E7EA82E76
:1008B00005C0B82CA32C03C0B82C01C0B92CA4FED1
:1008C0000FC0FE01E80DF11D8081803321F49A2DC7
:1008D000997EA92E09C0A2FE06C0B394B39404C0A9
:1008E0008A2D867809F0B394A3FC10C0A0FE06C040
:1008F000B21480F4280C922C9B180DC0B21458F43A
:10090000B60180E290E076D0B394F8CFB21418F438
:100910002B1802C0982C212CA4FE0FC0B60180E336
:1009200090E068D0A2FE16C0A1FC03C088E790E06A
:1009300002C088E590E0B6010CC08A2D867851F09F
:10094000A1FE02C08BE201C080E2A7FC8DE2B601ED
:1009500090E050D0891430F4B60180E390E04AD0A2
:100960009A94F8CF8A94F301E80DF11D8081B601C5
:1009700090E040D08110F6CF222009F44ECEB6018F
:1009800080E290E037D02A94F7CFF60186819781F4
:1009900002C08FEF9FEF2B960FB6F894DEBF0FBE0D
:1009A000CDBFDF91CF911F910F91FF90EF90DF901E
:1009B000CF90BF90AF909F908F907F906F905F90FF
:1009C0004F903F902F900895FC010590615070402A
:1009D0000110D8F7809590958E0F9F1F0895FC0108
:1009E0006150704001900110D8F7809590958E0F5E
:1009F0009F1F08950F931F93CF93DF93FB012381D4
:100A000021FD03C08FEF9FEF2CC022FF16C046814F
:100A10005781248135814217530744F4A081B18165
:100A20009D012F5F3F4F318320838C932681378137
:100A30002F5F3F4F3783268314C08B01EC01FB01EE
:100A40000084F185E02D1995892BE1F6D8011696E1
:100A50008D919C911797019617969C938E9316975C
:100A6000CE01DF91CF911F910F910895FA01AA272E
:100A7000283051F1203181F1E8946F936E7F6E5FE1
:100A80007F4F8F4F9F4FAF4FB1E03ED0B4E03CD08F
:100A9000670F781F891F9A1FA11D680F791F8A1F72
:100AA000911DA11D6A0F711D811D911DA11D20D0D9
:100AB00009F468943F912AE0269F11243019305D93
:100AC0003193DEF6CF010895462F4770405D419384
:100AD000B3E00FD0C9F7F6CF462F4F70405D4A33D1
:100AE00018F0495D31FD4052419302D0A9F7EACF99
:100AF000B4E0A6959795879577956795BA95C9F7C8
:100B000000976105710508959B01AC010A2E0694BA
:100B10005795479537952795BA95C9F7620F731F73
:0C0B2000841F951FA01D0895F894FFCFBE
:100B2C004100010000000000014200010000000033
:100B3C00010043000100000000010144000100001D
:100B4C000001000045000100000001000146000109
:100B5C0000000001010047000100000001010148F4
:100B6C00000100000100000049000100000100002C
:100B7C00014A00010000010001004B0001000001CE
:100B8C000001014C00010000010100004D000100BA
:100B9C0000010100014E00010000010101004F00A5
:100BAC0001000001010101500001000100000000E2
:100BBC005100010001000000015200010001000081
:100BCC00010053000100010000010154000100016B
:100BDC000001000055000100010001000156000158
:100BEC000001000101005700010001000101015842
:100BFC00000100010100000059000100010100008A
:100C0C00015A000100010100010001000100010076
:100C1C0000004B4C415221212121004D4F44544F97
:100C2C0047204B4F4D4D414E444F204F0D0A002550
:100C3C0069004D6F6474616765743A20004D4F44D0
:100C4C00544F47204B4F4D4D414E444F20430D0ABE
:100C5C00004D4F44544F47204B4F4D4D414E444F48
:060C6C0020480D0A000003
:00000001FF
