:1000000071C0000086C0000084C0000082C00000F3
:1000100080C000007EC000007CC000007AC00000EC
:1000200078C0000076C0000074C0000072C00000FC
:1000300070C000006EC000006CC000006AC000000C
:1000400068C0000066C0000064C0000062C000001C
:1000500060C000005EC000005CC000005AC000002C
:1000600058C0000056C0000054C0000052C000003C
:1000700050C000004EC000004CC000004AC000004C
:1000800048C0000046C0000044C0000042C000005C
:1000900040C000003EC000003CC000003AC000006C
:1000A00038C0000036C0000034C0000032C000007C
:1000B00030C000002EC000002CC000002AC000008C
:1000C00028C0000026C0000024C0000022C000009C
:1000D00020C000001EC000001CC000001AC00000AC
:1000E00018C0000011241FBECFEFD1E2DEBFCDBF8C
:1000F00000E00CBF12E0A0E0B2E0E2E7FBE000E0CD
:100100000BBF02C007900D92A831B107D9F702D0FA
:100110002EC576CFCF93DF93CDB7DEB76E970FB6F0
:10012000F894DEBF0FBECDBFCE0101965BD161E07A
:10013000CE01019685D1CE01019607D280E090E0F4
:100140006E960FB6F894DEBF0FBECDBFDF91CF9194
:1001500008951092B90088E48093B800089584EA65
:100160008093BC008091BC008823E4F7089584E963
:100170008093BC0008956093BB0084E88093BC002A
:100180008091BC008823E4F7089584EC8093BC0040
:100190008091BC008823E4F78091BB00089584E837
:1001A0008093BC008091BC008823E4F78091BB0061
:1001B0000895FF920F931F93CF93DF931F92CDB7B4
:1001C000DEB78C01F62E0F96C4DFF801F486CE015F
:1001D0000196BFDFF8018485982F990F958790E0ED
:1001E000880F991F816086870F90DF91CF911F91B3
:1001F0000F91FF9008950F931F93CF93DF938C017E
:10020000EC012F96CE01ABDFF8016585CE01B3DF9F
:1002100062E0CE01B0DF62E0CE01ADDFCE01A7DF4C
:10022000FFEF21EE84E0F15020408040E1F700C074
:100230000000CE0194DFF8016685CE019CDFCE017F
:10024000A4DF182FCE01ABDF082FCE0190DF212FC6
:1002500030E0322F2227202B81E02130310509F0B8
:1002600080E0DF91CF911F910F910895FC01608193
:100270007181828193810895FC01648175818681F9
:1002800097810895FC016085718582859385089525
:100290002F923F924F925F926F927F928F929F9296
:1002A000AF92BF92CF92DF92EF92FF920F931F9384
:1002B000CF93DF93CDB7DEB72C970FB6F894DEBFA0
:1002C0000FBECDBF7C01C70196DF8823E1F3870114
:1002D000015F1F4FC80143DFF7016585C8014BDF90
:1002E00063E0C80148DF60E0C80145DFC8013FDFC7
:1002F000FFEF20E782E0F15020408040E1F700C0AE
:100300000000C8012CDFF7016685C80134DFC80191
:100310003CDF582EC80139DF482EC80136DFC8013E
:1003200034DF382EC80131DF282EC8012EDFC80186
:100330002CDF982EC80129DF882EC80126DFC801CE
:1003400024DF782EC80121DF682EC8011EDFC80116
:100350001CDFD82EC80119DFC82EC80116DFC8015E
:1003600014DFB82EC80111DFA82EC80118DFC8019C
:10037000FEDE822D932DA42DB52D89839A83AB8328
:10038000BC83862D972DA82DB92D8D839E83AF8399
:10039000B8878A2D9B2DAC2DBD2D89879A87AB8779
:1003A000BC878CE0FE013196D70101900D928A95B1
:1003B000E1F72C960FB6F894DEBF0FBECDBFDF91EC
:1003C000CF911F910F91FF90EF90DF90CF90BF9052
:1003D000AF909F908F907F906F905F904F903F90E5
:1003E0002F9008950F931F93CF93DF93CDB7DEB770
:1003F00061970FB6F894DEBF0FBECDBF8C0101969A
:10040000B9D00E5F1F4F61E6C801D3DE61E6CE01B1
:100410000196CFDE80E1FE013196D80101900D9268
:100420008A95E1F7CE014196A5D061960FB6F89472
:10043000DEBF0FBECDBFDF91CF911F910F91089509
:10044000FC01608308950F931F93CF93DF93EC011A
:100450008C010E5F1F4FC8011BDFC80107DF6A8BCD
:100460007B8B8C8B9D8BC80107DF6E8B7F8B888F7E
:10047000998FC80107DF6A8F7B8F8C8F9D8FDF91EB
:10048000CF911F910F910895EF92FF920F931F93B9
:10049000CF93DF93CDB7DEB7C456D1090FB6F8942A
:1004A000DEBF0FBECDBF8C01DC015A96EC915A978E
:1004B0005B96FC915B975C96FC905C975D96EC90EC
:1004C0005D9756964C91569757965C9157975896CC
:1004D0006C91589759967C91599752968C91529756
:1004E00053969C91539754962C91549755963C91C2
:1004F000EF92FF92FF93EF937F936F935F934F93EE
:100500003F932F939F938F9380E092E09F938F93DD
:10051000CE0101967C019F938F934ED0B701C80105
:10052000019638D00FB6F894DEBF0FBECDBFCC59C0
:10053000DF4F0FB6F894DEBF0FBECDBFDF91CF9176
:100540001F910F91FF90EF900895EC01CE017BDF9A
:10055000CE019ADF888190E6899F802D112491E059
:100560009817A0F7EFE9FFE03197F1F700C000001E
:100570009F5FF6CF1092C50087E68093C40088E1A4
:100580008093C10008958091C00085FFFCCF6093E7
:10059000C60008950F931F93CF93DF938C01EB0157
:1005A0006881662321F0C801EEDF2196F9CFDF9143
:1005B000CF911F910F9108950F931F93CF93DF93C6
:1005C000CDB7DEB72E970FB6F894DEBF0FBECDBF06
:1005D0000E891F8986E08C831A8309838FEF9FE73A
:1005E0009E838D83AE01465E5F4F688D798DCE010F
:1005F000019610D0EF81F885E00FF11F10822E9642
:100600000FB6F894DEBF0FBECDBFDF91CF911F9123
:100610000F9108952F923F924F925F926F927F9227
:100620008F929F92AF92BF92CF92DF92EF92FF9202
:100630000F931F93CF93DF93CDB7DEB72B970FB6F2
:10064000F894DEBF0FBECDBF6C017B018A01FC01B7
:1006500017821682838181FFBFC1CE0101963C01C2
:10066000F6019381F70193FD859193FF81917F01BD
:10067000882309F4ADC1853239F493FD859193FF48
:1006800081917F01853221F4B60190E0D6D1E8CF87
:10069000912C212C312CFFE1F315D8F08B3279F01D
:1006A00038F4803279F08332A1F4232D20611DC00B
:1006B0008D3261F0803369F4232D216016C0832DC3
:1006C0008260382EE32DE4603E2E2AC0F32DF860C0
:1006D0001DC037FC2DC020ED280F2A3040F08E328F
:1006E000B9F436FC75C1232D2064322E19C036FEB4
:1006F00006C08AE0989E200D1124922E11C0EAE0D7
:100700002E9E200D1124222EF32DF0623F2E08C0C4
:100710008C3621F4832D8068382E02C0883641F44F
:10072000F70193FD859193FF81917F018111B3CFF3
:10073000982F9F7D9554933028F40C5F1F4F9FE3B3
:1007400099830DC0833631F0833771F0833509F01A
:1007500055C020C0F801808189830E5F1F4F882417
:100760008394912C530112C02801F2E04F0E511CCA
:10077000F801A080B18036FE03C0692D70E002C090
:100780006FEF7FEFC5014ED14C018201F32DFF7752
:100790003F2E15C0280122E0420E511CF801A08016
:1007A000B18036FE03C0692D70E002C06FEF7FEFAD
:1007B000C5012DD14C01F32DF0683F2E820133FC91
:1007C00019C0822D90E088169906A0F4B60180E247
:1007D00090E033D12A94F5CFF50137FC859137FEAF
:1007E00081915F01B60190E028D121102A9421E087
:1007F000821A91088114910479F7E1C0843611F0CE
:10080000893639F5F80137FE07C060817181828130
:1008100093810C5F1F4F08C060817181072E000C0F
:10082000880B990B0E5F1F4FF32DFF763F2E97FF1E
:1008300009C090958095709561957F4F8F4F9F4F20
:10084000F0683F2E2AE030E0A30133D1882E8618CD
:1008500044C0853731F4232D2F7EB22E2AE030E0BC
:1008600025C0932D997FB92E8F36C1F018F48835A5
:1008700079F0AEC0803719F0883721F0A9C0E92F90
:10088000E061BE2EB4FE0DC0FB2DF460BF2E09C08A
:1008900034FE0AC0292F2660B22E06C028E030E0C0
:1008A00005C020E130E002C020E132E0F801B7FEEF
:1008B00007C060817181828193810C5F1F4F06C0E8
:1008C0006081718180E090E00E5F1F4FA301F1D045
:1008D000882E8618FB2DFF773F2E36FE0DC0232D68
:1008E0002E7FA22E891458F434FE0BC032FC09C0AE
:1008F000832D8E7EA82E05C0B82CA32C03C0B82C47
:1009000001C0B92CA4FE0FC0FE01E80DF11D8081CD
:10091000803321F49A2D997EA92E09C0A2FE06C02B
:10092000B394B39404C08A2D867809F0B394A3FCE1
:1009300010C0A0FE06C0B21480F4280C922C9B18A4
:100940000DC0B21458F4B60180E290E076D0B394B2
:10095000F8CFB21418F42B1802C0982C212CA4FE46
:100960000FC0B60180E390E068D0A2FE16C0A1FCE3
:1009700003C088E790E002C088E590E0B6010CC0B3
:100980008A2D867851F0A1FE02C08BE201C080E280
:10099000A7FC8DE2B60190E050D0891430F4B60186
:1009A00080E390E04AD09A94F8CF8A94F301E80D5E
:1009B000F11D8081B60190E040D08110F6CF222059
:1009C00009F44ECEB60180E290E037D02A94F7CFFA
:1009D000F6018681978102C08FEF9FEF2B960FB6AD
:1009E000F894DEBF0FBECDBFDF91CF911F910F9165
:1009F000FF90EF90DF90CF90BF90AF909F908F903F
:100A00007F906F905F904F903F902F900895FC01E2
:100A10000590615070400110D8F7809590958E0F29
:100A20009F1F0895FC016150704001900110D8F79C
:100A3000809590958E0F9F1F08950F931F93CF93CE
:100A4000DF93FB01238121FD03C08FEF9FEF2CC0BB
:100A500022FF16C0468157812481358142175307F2
:100A600044F4A081B1819D012F5F3F4F31832083EA
:100A70008C93268137812F5F3F4F3783268314C0A5
:100A80008B01EC01FB010084F185E02D1995892B88
:100A9000E1F6D80116968D919C91179701961796BD
:100AA0009C938E931697CE01DF91CF911F910F915A
:100AB0000895FA01AA27283051F1203181F1E894F4
:100AC0006F936E7F6E5F7F4F8F4F9F4FAF4FB1E041
:100AD0003ED0B4E03CD0670F781F891F9A1FA11D3C
:100AE000680F791F8A1F911DA11D6A0F711D811D3D
:100AF000911DA11D20D009F468943F912AE0269F02
:100B000011243019305D3193DEF6CF010895462F60
:100B10004770405D4193B3E00FD0C9F7F6CF462F41
:100B20004F70405D4A3318F0495D31FD40524193AA
:100B300002D0A9F7EACFB4E0A69597958795779567
:100B40006795BA95C9F700976105710508959B01EE
:100B5000AC010A2E06945795479537952795BA9577
:100B6000C9F7620F731F841F951FA01D0895F89485
:020B7000FFCFB5
:100B7200433A20252E326620543A20252E32662012
:080B8200483A20252E326600DE
:00000001FF
