:1000000071C0000086C0000084C0000082C00000F3
:1000100080C000007EC000007CC000007AC00000EC
:1000200078C0000076C0000074C0000072C00000FC
:1000300070C000006EC000006CC000006AC000000C
:1000400068C0000066C0000064C0000062C000001C
:1000500060C000005EC000005CC000005AC000002C
:1000600058C0000056C0000054C0000052C000003C
:1000700050C000004EC000004CC000004AC000004C
:1000800048C0000046C0000044C0000042C000005C
:1000900040C000003EC000003CC000003AC000006C
:1000A00038C0000036C0000034C0000032C000007C
:1000B00030C000002EC000002CC000002AC000008C
:1000C00028C0000026C0000024C0000022C000009C
:1000D00020C000001EC000001CC000001AC00000AC
:1000E00018C0000011241FBECFEFD1E2DEBFCDBF8C
:1000F00000E00CBF13E0A0E0B2E0EAEEF2E000E0C6
:100100000BBF02C007900D92A03DB107D9F702D0F6
:10011000EAC076CFCF93DF93CDB7DEB768970FB63F
:10012000F894DEBF0FBECDBFCE01019647D01C8A2A
:100130001D8A1E8A81E08F8BAE014C5E5F4F61E4A9
:10014000CE0101968FD0CE01489616D062EC73E0B6
:10015000CE01489621D0CE01019648D0CE0101961D
:1001600044D080E090E068960FB6F894DEBF0FBEF2
:10017000CDBFDF91CF9108951092C50087E680939F
:10018000C40088E18093C10008958091C00085FF7C
:10019000FCCF6093C60008950F931F93CF93DF9316
:1001A0008C01EB016881662321F0C801EEDF219606
:1001B000F9CFDF91CF911F910F910895FC01118A22
:1001C0001082118212821382148215821682178283
:1001D000108614B880E48093800089E080938100C9
:1001E00010928900109288000895089580E284B9E1
:1001F00082E490E090938900809388000895DC0168
:1002000090E09C3170F5292F30E041E1429FF001F0
:10021000439FF00D1124E050FE4F408146131FC054
:1002200088E08031B8F4682F70E0FB013897EE0F5A
:10023000FF1F91E1929FA001939F500D1124E40FA5
:10024000F51FE050FE4F9181FD01E60FF71F9183EE
:100250008F5FE7CF81E08C9351961C9208959F5F4A
:10026000D0CF08950F931F93CF93DF93CDB7DEB711
:1002700028970FB6F894DEBF0FBECDBF8C0188E083
:10028000EAEBF3E0DE01119601900D928A95E1F719
:1002900090E09430D8F4292F30E0F901EE0FFF1FE1
:1002A000A1E0B0E0AC0FBD1FEA0FFB1F8081F80199
:1002B000E20FF31F8183F9013496DA01A20FB31F15
:1002C0008C91E00FF11F81839F5FE3CFC80197DF1F
:1002D00028960FB6F894DEBF0FBECDBFDF91CF9149
:0A02E0001F910F910895F894FFCFCD
:1002EA0041000001000000000000000000000001C1
:1002FA0000420000010000000000000000000100B0
:10030A00000043000001000000000000000000019E
:10031A00000100440000010000000000000001008C
:10032A00000000004500000100000000000000017C
:10033A00000000010046000001000000000000006B
:10034A000100010000004700000100000000000059
:10035A000001000100010048000001000000000047
:10036A000100000000000000490000010000000038
:10037A000001000000000001004A00000100000026
:10038A00000001000000010000004B000001000015
:10039A0000000001000000010001004C0000010003
:1003AA000000000001000100000000004D000001F3
:1003BA00000000000001000100000001004E0000E2
:1003CA0001000000000001000100010000004F00D0
:1003DA0000010000000000010001000100010050BE
:1003EA000000010000000100000000000000000001
:1003FA00510000010000000100000000000000019F
:10040A00005200000100000001000000000001008D
:10041A00000053000001000000010000000000017C
:10042A00000100540000010000000100000001006A
:10043A00000000005500000100000001000000015A
:10044A000000000100560000010000000100000049
:10045A000100010000005700000100000001000037
:10046A000001000100010058000001000000010025
:10047A000100000000000000590000010000000116
:10048A000001000000000001005A00000100000005
:10049A00010001000000010000000100010001004C
:1004AA0000000D0A3A53454E4445523A0D0A0000DF
:00000001FF
