:1000000071C000008FC000008DC000008BC00000D8
:1000100089C0000022C2000085C0000083C000002B
:1000200081C000007FC000007DC000007BC00000D8
:1000300079C0000077C0000075C0000073C00000E8
:1000400071C000006FC000006DC000006BC00000F8
:1000500069C0000067C0000065C0000063C0000008
:1000600061C000005FC000005DC000005BC0000018
:1000700059C0000057C0000055C0000053C0000028
:1000800051C000004FC000004DC000004BC0000038
:1000900049C0000047C0000045C0000043C0000048
:1000A00041C000003FC00000E7C100003BC00000AD
:1000B00039C0000037C0000035C0000033C0000068
:1000C00031C000002FC000002DC000002BC0000078
:1000D00029C0000027C0000025C0000023C0000088
:1000E00021C0000011241FBECFEFD1E2DEBFCDBF83
:1000F00000E00CBF14E0A0E0B2E0E0E3F5E100E0D6
:100100000BBF02C007900D92A836B107D9F724E0C3
:10011000A8E6B4E001C01D92AB36B207E1F7C6D144
:100120000C94960A6DCFCF93DF93EC012A96CE0103
:1001300040D3CE0138D3DF91CF91089527ED33E03E
:10014000FC013183208361E60A96D3C20895CF93E0
:10015000DF93EC01D5D3CE010196FBD3C35ADF4F19
:100160001882DF91CF910895825A9F4FFC018081C0
:100170000895CF93DF93EC01F894EAE6F0E08081F4
:10018000836080838DB380618DBB1092A000E1EA13
:10019000F0E0108280818D6080831092A500109223
:1001A000A40088E09DE39093A9008093A800E2E773
:1001B000F0E0808182608083789484B1806284B929
:1001C000FE01E25AFF4F6083CE01CEDF811114C0E1
:1001D00069ED73E0CE01A4D361EE73E0CE01A0D34C
:1001E00064EF73E0CE019CD365E074E0CE0198D358
:1001F00068E174E0CE0194D3DF91CF910895FF922E
:100200000F931F93CF93DF93EC018C010F5F1F4F70
:10021000C801BAD3F82E682FC801D7D3CE01A4DF06
:10022000823061F081E0F81205C069E274E0CE012D
:1002300077D304C06DE274E0CE0172D3DF91CF9129
:100240001F910F91FF900895CF93DF93FC01DB0185
:10025000EC01C35ADF4F88818A30D8F490E09430A3
:10026000A0F4282F30E0492F50E0ED01C40FD51F36
:100270007881220F331F220F331F2E0F3F1FE901FA
:10028000C40FD51F7DAB9F5FEACFE35AFF4F8F5F4F
:100290008083DF91CF9108951F93CF93DF93EC017B
:1002A000162FFC01E25AFF4F8081823059F061E342
:1002B00074E0CE0135D3612FCE012BD36EED73E008
:1002C000CE012ED3AE014B5C5F4F612FCE01019664
:1002D000F0D3DF91CF911F910895CF93DF93EC017D
:1002E00043DF811135C0CE0101964BD3811130C05F
:1002F0006BE374E0CE0114D3CE0124D3883681F0B1
:1003000018F4833649F024C08D3671F08F3601F52C
:100310006FE4CE01C1DF1CC063E4CE01BDDF18C0B5
:1003200068E4CE01B9DF14C069ED73E0CE01F8D204
:1003300061EE73E0CE01F4D264EF73E0CE01F0D24F
:1003400065E074E0CE01ECD268E174E0CE01E8D261
:10035000DF91CF910895CF93DF93FC0124A9243638
:1003600029F0EC016FE498DF84E68CABDF91CF914C
:100370000895CF93DF93FC0124A9223329F0EC01E7
:1003800068E48ADF82E38CABDF91CF910895CF934D
:10039000DF93FC0124A9222321F0EC0163E47CDF3C
:1003A0001CAADF91CF9108954F925F926F927F9236
:1003B000AF92BF92CF92DF92EF92FF920F931F9373
:1003C000CF93DF93CDB7DEB7E2970FB6F894DEBFD9
:1003D0000FBECDBF5C012A013B01CB01BA0181D424
:1003E0006B017C01072E000C880B990BADD49B018F
:1003F000AC01C301B201A4D320E030E048EC52E4E8
:1004000057D56FD47F936F93DF92CF9286E594E0B8
:100410009F938F938E010F5F1F4F1F930F93ABD549
:10042000B801C5017DD20FB6F894DEBF0FBECDBFB7
:10043000E2960FB6F894DEBF0FBECDBFDF91CF912D
:100440001F910F91FF90EF90DF90CF90BF90AF90F2
:100450007F906F905F904F9008951F920F920FB60C
:100460000F9211248F9381E080936A048F910F90F3
:100470000FBE0F901F9018951F920F920FB60F92FC
:1004800011248F93809168048F5F8093680480911A
:100490006804853028F081E0809369041092680434
:1004A0008F910F900FBE0F901F901895CF93DF93F1
:1004B000CDB7DEB7C158D1090FB6F894DEBF0FBE75
:1004C000CDBFCE01019643DE60E0CE01019651DE44
:1004D000A1961FAEA197A2961FAEA297A3961FAE9C
:1004E000A39781E0A4968FAFA497BE01605A7F4F77
:1004F000CE010196A9DECE018C599F4F1FDE80E010
:1005000090E0A0E7B2E4AA968CAF9DAFAEAFBFAFCC
:10051000AA9780E090E0A0EFB1E4AE968CAF9DAFDB
:10052000AEAFBFAFAE9780916904813031F4CE0198
:1005300001961ADE813019F403C080E001C080E02A
:10054000882309F498C0CE0101960EDE813049F46B
:10055000CE018C599F4FE7DDAB01BC01CE01019666
:1005600023DFA696EEADFFADA6970190F081E02DBA
:10057000CE018C599F4F19956B017C01AA968CACCA
:100580009DACAEACBFACAA97AE964CAC5DAC6EACBD
:100590007FACAE97A3019201C501B401D1D2C2587C
:1005A000DF4F688379838A839B83CE57D040A30132
:1005B0009201C701B60129D38823B4F4A70196019B
:1005C000C301B201BDD2C258DF4F288139814A81AF
:1005D0005B81CE57D0401DD320E030E048EC52E4A0
:1005E00067D46B017C0120C0A5019401C701B6014D
:1005F0005BD41816B4F4A5019401C701B601A0D2CA
:10060000C258DF4F288139814A815B81CE57D04063
:1006100000D320E030E048EC52E44AD46B017C0186
:1006200003C0C12CD12C760120E030E040EA51E437
:10063000C701B601EAD2882364F420E030E0A901C2
:10064000C701B60131D4181624F4CE01019691DE0B
:1006500010C020E030E040EA51E4C701B60124D4E4
:10066000181624F4CE01019676DE03C0CE01019661
:100670008EDE1092690480916A04813009F053CFB4
:10068000CE010196BCDDCE01019627DE10926A04F0
:100690004ACF1092B90088E48093B800089584EAA4
:1006A0008093BC008091BC008823E4F7089584E91E
:1006B0008093BC0008956093BB0084E88093BC00E5
:1006C0008091BC008823E4F7089584EC8093BC00FB
:1006D0008091BC008823E4F78091BB00089584E8F2
:1006E0008093BC008091BC008823E4F78091BB001C
:1006F0000895FF920F931F93CF93DF931F92CDB76F
:10070000DEB78C01F62E0F96C4DFF801F486CE0119
:100710000196BFDFF8018485982F990F958790E0A7
:10072000880F991F816086870F90DF91CF911F916D
:100730000F91FF9008950F931F93CF93DF938C0138
:10074000EC012F96CE01ABDFF8016585CE01B3DF5A
:1007500062E0CE01B0DF62E0CE01ADDFCE01A7DF07
:100760008FE39CE90197F1F700C00000CE0197DF0D
:10077000F8016685CE019FDFCE01A7DF182FCE01DD
:10078000AEDF082FCE0193DF212F30E0322F22275A
:10079000202B81E02130310509F080E0DF91CF91FD
:1007A0001F910F910895FC01608571858285938565
:1007B00008952F923F924F925F926F927F928F9205
:1007C0009F92AF92BF92CF92DF92EF92FF920F93E0
:1007D0001F93CF93DF93CDB7DEB72C970FB6F89466
:1007E000DEBF0FBECDBF7C01A6DF882309F46FC03A
:1007F0008701015F1F4FC80152DFF7016585C801FE
:100800005ADF63E0C80157DF60E0C80154DFC80168
:100810004EDF8FE99FE00197F1F700C00000C801AB
:100820003EDFF7016685C80146DFC8014EDF582E5E
:10083000C8014BDF482EC80148DFC80146DF382E0B
:10084000C80143DF282EC80140DFC8013EDF982ED3
:10085000C8013BDF882EC80138DFC80136DF782E9B
:10086000C80133DF682EC80130DFC8012EDFD82E63
:10087000C8012BDFC82EC80128DFC80126DFB82E2B
:10088000C80123DFA82EC8012ADFC80110DF822D8E
:10089000932DA42DB52D89839A83AB83BC83862D9C
:1008A000972DA82DB92D8D839E83AF83B8878A2D70
:1008B0009B2DAC2DBD2D89879A87AB87BC878CE09B
:1008C000FE013196D70101900D928A95E1F72C96A1
:1008D0000FB6F894DEBF0FBECDBFDF91CF911F9151
:1008E0000F91FF90EF90DF90CF90BF90AF909F90CF
:1008F0008F907F906F905F904F903F902F900895D2
:100900001092C50087E68093C40088E18093C100FF
:1009100008958091C00085FFFCCF6093C6000895C4
:100920000F931F93CF93DF938C01EB0168816623B4
:1009300021F0C801EEDF2196F9CFDF91CF911F9111
:100940000F9108958091C0008823E4F78091C6003C
:100950000895FC0111AA108211821282138214825E
:10096000158216821782108680E284B980E4809313
:10097000800089E0809381001092890010928800A5
:100980000895FC0180810895FC0191A9903218F42A
:100990008081811103C0108280E00895DF01A90FDA
:1009A000B11D51968C919F5F91AB089580E284B9FF
:1009B00082E490E09093890080938800089514B8B1
:1009C00010928900109288000895CF93DF93EC0174
:1009D000613051F4EBDF8FE99FE00197F1F700C040
:1009E0000000CE01ECDF07C0EADF8FE99FE001974E
:1009F000F1F700C00000DF91CF910895DC0190E095
:100A00009C3170F5292F30E041E1429FF001439F76
:100A1000F00D1124E050FE4F408146131FC088E0C6
:100A20008031B8F4682F70E0FB013897EE0FFF1F9C
:100A300091E1929FA001939F500D1124E40FF51FA7
:100A4000E050FE4F9181FD01E60FF71F91838F5F0C
:100A5000E7CF81E08C93D1961C9208959F5FD0CF11
:100A60000895BC0190E080E0903110F5282F30E02F
:100A7000492F50E0FB01E40FF51FE181E11102C0B5
:100A8000A1E001C0A0E0FB01E20FF31FA18B2F5FEB
:100A90003F4FFB01E40FF51F4181FB01E20FF31F04
:100AA00021E0411101C020E0218B8E5F9F5FDCCFF0
:100AB00008950F931F93CF93DF93CDB7DEB7289799
:100AC0000FB6F894DEBF0FBECDBF8C01DC018C9158
:100AD00081112BC088E0EBECF3E0DE011196019070
:100AE0000D928A95E1F790E09430D8F4292F30E008
:100AF000F901EE0FFF1FA1E0B0E0AC0FBD1FEA0F40
:100B0000FB1F8081F801E20FF31F8183F901349606
:100B1000DA01A20FB31F8C91E00FF11F81839F5F59
:100B2000E3CFC8016BDFC8019CDF28960FB6F894AD
:100B3000DEBF0FBECDBFDF91CF911F910F91089502
:100B40005058BB27AA270ED075C166D130F06BD1A3
:100B500020F031F49F3F11F41EF45BC10EF4E095D8
:100B6000E7FB51C1E92F77D180F3BA17620773070A
:100B70008407950718F071F49EF58FC10EF4E09587
:100B80000B2EBA2FA02D0B01B90190010C01CA0147
:100B9000A0011124FF27591B99F0593F50F4503EF2
:100BA00068F11A16F040A22F232F342F4427585FE4
:100BB000F3CF469537952795A795F0405395C9F7FC
:100BC0007EF41F16BA0B620B730B840BBAF09150B4
:100BD000A1F0FF0FBB1F661F771F881FC2F70EC053
:100BE000BA0F621F731F841F48F487957795679526
:100BF000B795F7959E3F08F0B3CF9395880F08F00F
:100C00009927EE0F979587950895D9D008F481E03C
:100C100008950CD00FC107D140F0FED030F021F480
:100C20005F3F19F0F0C0511139C1F3C014D198F3EE
:100C30009923C9F35523B1F3951B550BBB27AA275D
:100C400062177307840738F09F5F5F4F220F331FCF
:100C5000441FAA1FA9F333D00E2E3AF0E0E830D09B
:100C600091505040E695001CCAF729D0FE2F27D09E
:100C7000660F771F881FBB1F261737074807AB076C
:100C8000B0E809F0BB0B802DBF01FF2793585F4FE1
:100C90002AF09E3F510568F0B6C000C15F3FECF3FB
:100CA000983EDCF3869577956795B795F7959F5FA6
:100CB000C9F7880F911D9695879597F90895E1E0FA
:100CC000660F771F881FBB1F621773078407BA0759
:100CD00020F0621B730B840BBA0BEE1F88F7E095B4
:100CE000089504D06894B111D9C00895BCD088F09B
:100CF0009F5790F0B92F9927B751A0F0D1F0660F08
:100D0000771F881F991F1AF0BA95C9F712C0B13022
:100D100081F0C3D0B1E00895C0C0672F782F882735
:100D2000B85F39F0B93FCCF3869577956795B39561
:100D3000D9F73EF490958095709561957F4F8F4FD0
:100D40009F4F0895E89409C097FB3EF490958095D5
:100D5000709561957F4F8F4F9F4F9923A9F0F92F81
:100D600096E9BB279395F695879577956795B795FF
:100D7000F111F8CFFAF4BB0F11F460FF1BC06F5FE5
:100D80007F4F8F4F9F4F16C0882311F096E911C0F7
:100D9000772321F09EE8872F762F05C0662371F018
:100DA00096E8862F70E060E02AF09A95660F771F2C
:100DB000881FDAF7880F9695879597F90895990F08
:100DC0000008550FAA0BE0E8FEEF16161706E80715
:100DD000F907C0F012161306E407F50798F0621B36
:100DE000730B840B950B39F40A2661F0232B242B0B
:100DF000252B21F408950A2609F4A140A6958FEF2A
:100E0000811D811D089597F99F6780E870E060E07B
:100E100008959FEF80EC089500240A941616170693
:100E200018060906089500240A94121613061406DB
:100E300005060895092E0394000C11F4882352F03E
:100E4000BB0F40F4BF2B11F460FF04C06F5F7F4FF6
:100E50008F4F9F4F089557FD9058440F551F59F0DD
:100E60005F3F71F04795880F97FB991F61F09F3F97
:100E700079F087950895121613061406551FF2CFC0
:100E80004695F1DF08C0161617061806991FF1CF10
:100E900086957105610508940895E894BB27662737
:100EA0007727CB0197F908958ADF08F48FEF08952B
:100EB0000BD0C0CFB1DF28F0B6DF18F0952309F0D2
:100EC000A2CFA7CF1124EACFC6DFA0F3959FD1F31D
:100ED000950F50E0551F629FF001729FBB27F00DE8
:100EE000B11D639FAA27F00DB11DAA1F649F66273D
:100EF000B00DA11D661F829F2227B00DA11D621F8C
:100F0000739FB00DA11D621F839FA00D611D221F45
:100F1000749F3327A00D611D231F849F600D211D29
:100F2000822F762F6A2F11249F5750408AF0E1F0CC
:100F300088234AF0EE0FFF1FBB1F661F771F881F15
:100F400091505040A9F79E3F510570F05CCFA6CF5D
:100F50005F3FECF3983EDCF3869577956795B79500
:100F6000F795E7959F5FC1F7FE2B880F911D96952A
:100F7000879597F908950F931F93CF93DF93CDB77C
:100F8000DEB72E970FB6F894DEBF0FBECDBF0E8929
:100F90001F8986E08C831A8309838FEF9FE79E83E6
:100FA0008D83AE01465E5F4F688D798DCE010196CF
:100FB00010D0EF81F885E00FF11F10822E960FB64A
:100FC000F894DEBF0FBECDBFDF91CF911F910F917F
:100FD00008952F923F924F925F926F927F928F92DD
:100FE0009F92AF92BF92CF92DF92EF92FF920F93B8
:100FF0001F93CF93DF93CDB7DEB72B970FB6F8943F
:10100000DEBF0FBECDBF6C017B018A01FC011782E0
:101010001682838181FFBFC1CE0101963C01F6019A
:101020009381F70193FD859193FF81917F0188233F
:1010300009F4ADC1853239F493FD859193FF819117
:101040007F01853221F4B60190E0D6D1E8CF912C12
:10105000212C312CFFE1F315D8F08B3279F038F4E4
:10106000803279F08332A1F4232D20611DC08D32AE
:1010700061F0803369F4232D216016C0832D8260D6
:10108000382EE32DE4603E2E2AC0F32DF8601DC0FB
:1010900037FC2DC020ED280F2A3040F08E32B9F4F5
:1010A00036FC75C1232D2064322E19C036FE06C0D1
:1010B0008AE0989E200D1124922E11C0EAE02E9E07
:1010C000200D1124222EF32DF0623F2E08C08C3605
:1010D00021F4832D8068382E02C0883641F4F70150
:1010E00093FD859193FF81917F018111B3CF982F5B
:1010F0009F7D9554933028F40C5F1F4F9FE3998395
:101100000DC0833631F0833771F0833509F055C057
:1011100020C0F801808189830E5F1F4F882483944B
:10112000912C530112C02801F2E04F0E511CF8011E
:10113000A080B18036FE03C0692D70E002C06FEF61
:101140007FEFC5014ED14C018201F32DFF773F2E79
:1011500015C0280122E0420E511CF801A080B18088
:1011600036FE03C0692D70E002C06FEF7FEFC5014E
:101170002DD14C01F32DF0683F2E820133FC19C0B4
:10118000822D90E088169906A0F4B60180E290E0E6
:1011900033D12A94F5CFF50137FC859137FE819143
:1011A0005F01B60190E028D121102A9421E0821A33
:1011B00091088114910479F7E1C0843611F08936E1
:1011C00039F5F80137FE07C0608171818281938112
:1011D0000C5F1F4F08C060817181072E000C880BC7
:1011E000990B0E5F1F4FF32DFF763F2E97FF09C01F
:1011F00090958095709561957F4F8F4F9F4FF068C8
:101200003F2E2AE030E0A30133D1882E861844C057
:10121000853731F4232D2F7EB22E2AE030E025C011
:10122000932D997FB92E8F36C1F018F4883579F057
:10123000AEC0803719F0883721F0A9C0E92FE061EE
:10124000BE2EB4FE0DC0FB2DF460BF2E09C034FECF
:101250000AC0292F2660B22E06C028E030E005C063
:1012600020E130E002C020E132E0F801B7FE07C023
:1012700060817181828193810C5F1F4F06C0608104
:10128000718180E090E00E5F1F4FA301F1D0882EA6
:101290008618FB2DFF773F2E36FE0DC0232D2E7FA7
:1012A000A22E891458F434FE0BC032FC09C0832DE1
:1012B0008E7EA82E05C0B82CA32C03C0B82C01C06C
:1012C000B92CA4FE0FC0FE01E80DF11D8081803312
:1012D00021F49A2D997EA92E09C0A2FE06C0B394CE
:1012E000B39404C08A2D867809F0B394A3FC10C08F
:1012F000A0FE06C0B21480F4280C922C9B180DC0DE
:10130000B21458F4B60180E290E076D0B394F8CFEE
:10131000B21418F42B1802C0982C212CA4FE0FC074
:10132000B60180E390E068D0A2FE16C0A1FC03C025
:1013300088E790E002C088E590E0B6010CC08A2DF5
:10134000867851F0A1FE02C08BE201C080E2A7FCCA
:101350008DE2B60190E050D0891430F4B60180E3FC
:1013600090E04AD09A94F8CF8A94F301E80DF11DE9
:101370008081B60190E040D08110F6CF222009F4A0
:101380004ECEB60180E290E037D02A94F7CFF60136
:101390008681978102C08FEF9FEF2B960FB6F8944E
:1013A000DEBF0FBECDBFDF91CF911F910F91FF9098
:1013B000EF90DF90CF90BF90AF909F908F907F90F5
:1013C0006F905F904F903F902F900895FC01059093
:1013D000615070400110D8F7809590958E0F9F1F37
:1013E0000895FC016150704001900110D8F780957C
:1013F00090958E0F9F1F08950F931F93CF93DF93A8
:10140000FB01238121FD03C08FEF9FEF2CC022FF42
:1014100016C046815781248135814217530744F411
:10142000A081B1819D012F5F3F4F318320838C9339
:10143000268137812F5F3F4F3783268314C08B016E
:10144000EC01FB010084F185E02D1995892BE1F673
:10145000D80116968D919C911797019617969C939B
:101460008E931697CE01DF91CF911F910F91089522
:10147000FA01AA27283051F1203181F1E8946F93C5
:101480006E7F6E5F7F4F8F4F9F4FAF4FB1E03ED06B
:10149000B4E03CD0670F781F891F9A1FA11D680F09
:1014A000791F8A1F911DA11D6A0F711D811D911D3C
:1014B000A11D20D009F468943F912AE0269F1124B1
:1014C0003019305D3193DEF6CF010895462F477015
:1014D000405D4193B3E00FD0C9F7F6CF462F4F7070
:1014E000405D4A3318F0495D31FD4052419302D0CE
:1014F000A9F7EACFB4E0A695979587957795679574
:10150000BA95C9F700976105710508959B01AC0173
:101510000A2E06945795479537952795BA95C9F79A
:10152000620F731F841F951FA01D0895F894FFCFAD
:101530004100000100000000000000000000000168
:101540000042000001000000000000000000010057
:101550000000430000010000000000000000000146
:101560000001004400000100000000000000010034
:101570000000000045000001000000000000000124
:101580000000000100460000010000000000000013
:101590000100010000004700000100000000000001
:1015A00000010001000100480000010000000000EF
:1015B00001000000000000004900000100000000E0
:1015C0000001000000000001004A000001000000CE
:1015D000000001000000010000004B0000010000BD
:1015E00000000001000000010001004C00000100AB
:1015F0000000000001000100000000004D0000019B
:10160000000000000001000100000001004E000089
:1016100001000000000001000100010000004F0077
:101620000001000000000001000100010001005065
:1016300000000100000001000000000000000000A8
:101640005100000100000001000000000000000146
:101650000052000001000000010000000000010035
:101660000000530000010000000100000000000124
:101670000001005400000100000001000000010012
:101680000000000055000001000000010000000102
:1016900000000001005600000100000001000000F1
:1016A00001000100000057000001000000010000DF
:1016B00000010001000100580000010000000100CD
:1016C00001000000000000005900000100000001BE
:1016D0000001000000000001005A000001000000AD
:1016E0000100010000000100000074010001000180
:1016F00000010001000100010001000100010001E2
:101700000000000000000093004D656E753A0D0A60
:10171000006F202D20416162656E2076696E6475D0
:10172000650D0A0063202D204C756B2076696E6470
:1017300075650D0A0068202D2048616C7674206163
:101740006162656E740D0A006D202D2044656E6E19
:1017500065206D656E750D0A002031200020302057
:10176000000D0A53454E44455220000D0A0A4B6CA9
:1017700061722074696C206EE6737465206B6F6D06
:101780006D616E646F000D0A446F75626C653A207E
:0817900025642E2530326400AF
:00000001FF
