:1000000071C0000087C0000085C0000083C00000F0
:1000100081C000007FC000007DC000007BC00000E8
:1000200079C0000077C0000075C0000073C00000F8
:1000300071C000006FC000006DC000006BC0000008
:1000400069C0000067C0000065C0000063C0000018
:1000500061C000005FC000005DC000005BC0000028
:1000600059C0000057C0000055C0000053C0000038
:1000700051C000004FC000004DC000004BC0000048
:1000800049C0000047C0000045C0000043C0000058
:1000900041C000003FC000003DC000003BC0000068
:1000A00039C0000037C0000035C0000033C0000078
:1000B00031C000002FC000002DC000002BC0000088
:1000C00029C0000027C0000025C0000023C0000098
:1000D00021C000001FC000001DC000001BC00000A8
:1000E00019C0000011241FBECFEFD1E2DEBFCDBF8B
:1000F00000E00CBF12E0A0E0B2E0E4E5F1E100E0D6
:100100000BBF02C007900D92A432B107D9F703D0FC
:100110000C94A80875CFCF93DF93CDB7DEB76E9759
:100120000FB6F894DEBF0FBECDBFCE0101965BD1F6
:1001300061E0CE01019699D1CE010196EFD280E027
:1001400090E06E960FB6F894DEBF0FBECDBFDF9184
:10015000CF9108951092B90088E48093B800089573
:1001600084EA8093BC008091BC008823E4F7089562
:1001700084E98093BC0008956093BB0084E8809379
:10018000BC008091BC008823E4F7089584EC809340
:10019000BC008091BC008823E4F78091BB000895E7
:1001A00084E88093BC008091BC008823E4F78091B0
:1001B000BB000895FF920F931F93CF93DF931F927D
:1001C000CDB7DEB78C01F62E0F96C4DFF801F486AA
:1001D000CE010196BFDFF8018485982F990F95878E
:1001E00090E0880F991F816086870F90DF91CF91F3
:1001F0001F910F91FF9008950F931F93CF93DF935B
:100200008C01EC012F96CE01ABDFF8016585CE01A4
:10021000B3DF62E0CE01B0DF62E0CE01ADDFCE0140
:10022000A7DFFFEF21EE84E0F15020408040E1F7AE
:1002300000C00000CE0194DFF8016685CE019CDF8E
:10024000CE01A4DF182FCE01ABDF082FCE0190DF47
:10025000212F30E0322F2227202B81E02130310561
:1002600009F080E0DF91CF911F910F910895FC017B
:1002700060817181828193810895FC01648175811F
:10028000868197810895FC016085718582859385BB
:1002900008952F923F924F925F926F927F928F922A
:1002A0009F92AF92BF92CF92DF92EF92FF920F9305
:1002B0001F93CF93DF93CDB7DEB72C970FB6F8948B
:1002C000DEBF0FBECDBF7C01C70196DF8823E1F3FF
:1002D0008701015F1F4FC80143DFF7016585C80132
:1002E0004BDF63E0C80148DF60E0C80145DFC801BB
:1002F0003FDFFFEF20E782E0F15020408040E1F750
:1003000000C00000C8012CDFF7016685C80134DF9A
:10031000C8013CDF582EC80139DF482EC80136DF3E
:10032000C80134DF382EC80131DF282EC8012EDF86
:10033000C8012CDF982EC80129DF882EC80126DFCE
:10034000C80124DF782EC80121DF682EC8011EDF16
:10035000C8011CDFD82EC80119DFC82EC80116DF5E
:10036000C80114DFB82EC80111DFA82EC80118DF9C
:10037000C801FEDE822D932DA42DB52D89839A838D
:10038000AB83BC83862D972DA82DB92D8D839E839D
:10039000AF83B8878A2D9B2DAC2DBD2D89879A8779
:1003A000AB87BC878CE0FE013196D70101900D929E
:1003B0008A95E1F72C960FB6F894DEBF0FBECDBF3D
:1003C000DF91CF911F910F91FF90EF90DF90CF9031
:1003D000BF90AF909F908F907F906F905F904F9065
:1003E0003F902F900895EF92FF920F931F93CF931A
:1003F000DF93CDB7DEB761970FB6F894DEBF0FBEBF
:10040000CDBF8C017C018FEFE81AF80A61E6C701C5
:10041000D1DEC8014196A1D1F801128A138A148A4B
:10042000158A168A178A108E118E128E138E148ECC
:10043000158E61E6CE010196BDDE80E1FE013196AA
:10044000D70101900D928A95E1F7CE01419685D1B1
:1004500061960FB6F894DEBF0FBECDBFDF91CF918E
:100460001F910F91FF90EF900895FC016083089514
:100470002F923F924F925F926F927F928F929F92B4
:10048000AF92BF92CF92DF92EF92FF920F931F93A2
:10049000CF93DF9300D01F92CDB7DEB78C01262E0D
:1004A000312CC12CD12C7601460157012601370190
:1004B000321470F5C80101969A838983EADE898136
:1004C0009A81D5DE9B01AC01C301B20169D12B0138
:1004D0003C0189819A81D1DE9B01AC01C501B40147
:1004E0005FD14B015C0189819A81CDDE9B01AC011A
:1004F000C701B60155D16B017C019FEFE1EEF4E03D
:100500009150E040F040E1F700C000003394D0CFBC
:10051000622D70E080E090E042D269837A838B8321
:100520009C839B01AC01C301B2019ED1F801628B97
:10053000738B848B958B29813A814B815C81C501BA
:10054000B40192D1F801668B778B808F918F2981CE
:100550003A814B815C81C701B60186D1F801628F77
:10056000738F848F958F0F900F900F900F90DF9166
:10057000CF911F910F91FF90EF90DF90CF90BF90A0
:10058000AF909F908F907F906F905F904F903F9033
:100590002F9008952F923F924F925F926F927F9289
:1005A0008F929F92AF92BF92CF92DF92EF92FF9283
:1005B0000F931F93CF93DF93CDB7DEB7CA56D10900
:1005C0000FB6F894DEBF0FBECDBF8C01FC01C28810
:1005D000D388E488F588C701B601AED1A9966CAF7F
:1005E0007DAF8EAF9FAFA997A7962EAD3FADA797D2
:1005F000B901330F880B990BD2D19B01AC01C70114
:10060000B601CDD020E030E048EC52E454D294D191
:10061000AA966FAFAA97AB967FAFAB97F801868883
:100620009788A08CB18CC501B40186D16B017C0187
:10063000072E000C880B990BB2D19B01AC01C501B0
:10064000B401ADD020E030E048EC52E434D274D1B3
:10065000262E372EF801428C538C648C758CC30186
:10066000B2016AD14B015C01072E000C880B990B7B
:1006700096D19B01AC01C301B20191D020E030E0E2
:1006800048EC52E418D258D17F936F939F928F9287
:100690003F922F92DF92CF92AB96FFADAB97FF9335
:1006A000AA962FADAA972F93A7963FADA7973F93F2
:1006B000A6968FADA6978F9380E092E09F938F933D
:1006C000FE0131967F01FF93EF9367D20F5E1F4FBC
:1006D000B701C80152D061E272E0C8014ED00FB636
:1006E000F894DEBF0FBECDBFC659DF4F0FB6F894EA
:1006F000DEBF0FBECDBFDF91CF911F910F91FF9055
:10070000EF90DF90CF90BF90AF909F908F907F90B1
:100710006F905F904F903F902F900895EC0163E0B1
:10072000CE01A6DECE0136DF288130E0A0E6BAEEAB
:1007300025D201E010E020E030E006171707280777
:10074000390768F7EFE9FFE03197F1F700C00000E3
:100750000F5F1F4F2F4F3F4FF0CF1092C50087E61E
:100760008093C40088E18093C10008958091C00007
:1007700085FFFCCF6093C60008950F931F93CF931E
:10078000DF938C01EB016881662321F0C801EEDF65
:100790002196F9CFDF91CF911F910F910895505875
:1007A000BB27AA270ED04DC13ED130F043D120F057
:1007B00031F49F3F11F41EF433C10EF4E095E7FBD2
:1007C00029C1E92F4FD180F3BA1762077307840755
:1007D000950718F071F49EF567C10EF4E0950B2EA5
:1007E000BA2FA02D0B01B90190010C01CA01A00183
:1007F0001124FF27591B99F0593F50F4503E68F1DE
:100800001A16F040A22F232F342F4427585FF3CF1E
:10081000469537952795A795F0405395C9F77EF4EF
:100820001F16BA0B620B730B840BBAF09150A1F038
:10083000FF0FBB1F661F771F881FC2F70EC0BA0FBE
:10084000621F731F841F48F4879577956795B79546
:10085000F7959E3F08F0B3CF9395880F08F099273E
:10086000EE0F9795879508950CD0EBC0E3D040F03C
:10087000DAD030F021F45F3F19F0CCC0511115C12E
:10088000CFC0F0D098F39923C9F35523B1F3951B4A
:10089000550BBB27AA2762177307840738F09F5FA1
:1008A0005F4F220F331F441FAA1FA9F333D00E2E10
:1008B0003AF0E0E830D091505040E695001CCAF77D
:1008C00029D0FE2F27D0660F771F881FBB1F261742
:1008D00037074807AB07B0E809F0BB0B802DBF0115
:1008E000FF2793585F4F2AF09E3F510568F092C052
:1008F000DCC05F3FECF3983EDCF386957795679517
:10090000B795F7959F5FC9F7880F911D96958795C5
:1009100097F90895E1E0660F771F881FBB1F6217E4
:1009200073078407BA0720F0621B730B840BBA0BA2
:10093000EE1F88F7E095089504D06894B111B5C012
:10094000089598D088F09F5790F0B92F9927B75104
:10095000A0F0D1F0660F771F881F991F1AF0BA9583
:10096000C9F712C0B13081F09FD0B1E008959CC0AA
:10097000672F782F8827B85F39F0B93FCCF3869579
:1009800077956795B395D9F73EF4909580957095D6
:1009900061957F4F8F4F9F4F0895E89409C097FB53
:1009A0003EF490958095709561957F4F8F4F9F4F46
:1009B0009923A9F0F92F96E9BB279395F69587958A
:1009C00077956795B795F111F8CFFAF4BB0F11F44D
:1009D00060FF1BC06F5F7F4F8F4F9F4F16C08823F4
:1009E00011F096E911C0772321F09EE8872F762F2A
:1009F00005C0662371F096E8862F70E060E02AF06B
:100A00009A95660F771F881FDAF7880F9695879556
:100A100097F9089597F99F6780E870E060E008957E
:100A20009FEF80EC089500240A9416161706180606
:100A30000906089500240A941216130614060506E2
:100A40000895092E0394000C11F4882352F0BB0F73
:100A500040F4BF2B11F460FF04C06F5F7F4F8F4FD6
:100A60009F4F089557FD9058440F551F59F05F3F11
:100A700071F04795880F97FB991F61F09F3F79F0C0
:100A800087950895121613061406551FF2CF469542
:100A9000F1DF08C0161617061806991FF1CF8695C4
:100AA0007105610508940895E894BB2766277727A8
:100AB000CB0197F908950BD0C4CFB5DF28F0BADF8A
:100AC00018F0952309F0A6CFABCF1124EECFCADFE3
:100AD000A0F3959FD1F3950F50E0551F629FF00151
:100AE000729FBB27F00DB11D639FAA27F00DB11DAA
:100AF000AA1F649F6627B00DA11D661F829F222733
:100B0000B00DA11D621F739FB00DA11D621F839FB9
:100B1000A00D611D221F749F3327A00D611D231F8F
:100B2000849F600D211D822F762F6A2F11249F57DD
:100B300050408AF0E1F088234AF0EE0FFF1FBB1F00
:100B4000661F771F881F91505040A9F79E3F51059F
:100B500070F060CFAACF5F3FECF3983EDCF3869550
:100B600077956795B795F795E7959F5FC1F7FE2B4A
:100B7000880F911D9695879597F90895A29FB001CA
:100B8000B39FC001A39F700D811D1124911DB29FC1
:100B9000700D811D1124911D08950F931F93CF9304
:100BA000DF93CDB7DEB72E970FB6F894DEBF0FBE3A
:100BB000CDBF0E891F8986E08C831A8309838FEF4E
:100BC0009FE79E838D83AE01465E5F4F688D798D72
:100BD000CE01019610D0EF81F885E00FF11F108251
:100BE0002E960FB6F894DEBF0FBECDBFDF91CF912A
:100BF0001F910F9108952F923F924F925F926F92A3
:100C00007F928F929F92AF92BF92CF92DF92EF929C
:100C1000FF920F931F93CF93DF93CDB7DEB72B9740
:100C20000FB6F894DEBF0FBECDBF6C017B018A0109
:100C3000FC0117821682838181FFBFC1CE0101961C
:100C40003C01F6019381F70193FD859193FF81911A
:100C50007F01882309F4ADC1853239F493FD859174
:100C600093FF81917F01853221F4B60190E0D6D1C6
:100C7000E8CF912C212C312CFFE1F315D8F08B32E9
:100C800079F038F4803279F08332A1F4232D206199
:100C90001DC08D3261F0803369F4232D216016C0B0
:100CA000832D8260382EE32DE4603E2E2AC0F32D82
:100CB000F8601DC037FC2DC020ED280F2A3040F011
:100CC0008E32B9F436FC75C1232D2064322E19C042
:100CD00036FE06C08AE0989E200D1124922E11C087
:100CE000EAE02E9E200D1124222EF32DF0623F2EDD
:100CF00008C08C3621F4832D8068382E02C08836D7
:100D000041F4F70193FD859193FF81917F0181115A
:100D1000B3CF982F9F7D9554933028F40C5F1F4FCD
:100D20009FE399830DC0833631F0833771F08335AB
:100D300009F055C020C0F801808189830E5F1F4FE4
:100D400088248394912C530112C02801F2E04F0EA5
:100D5000511CF801A080B18036FE03C0692D70E0FF
:100D600002C06FEF7FEFC5014ED14C018201F32D20
:100D7000FF773F2E15C0280122E0420E511CF801DA
:100D8000A080B18036FE03C0692D70E002C06FEF15
:100D90007FEFC5012DD14C01F32DF0683F2E82016C
:100DA00033FC19C0822D90E088169906A0F4B60194
:100DB00080E290E033D12A94F5CFF50137FC85919C
:100DC00037FE81915F01B60190E028D121102A946D
:100DD00021E0821A91088114910479F7E1C08436E8
:100DE00011F0893639F5F80137FE07C0608171814D
:100DF000828193810C5F1F4F08C060817181072E33
:100E0000000C880B990B0E5F1F4FF32DFF763F2EC2
:100E100097FF09C090958095709561957F4F8F4F92
:100E20009F4FF0683F2E2AE030E0A30133D1882E97
:100E3000861844C0853731F4232D2F7EB22E2AE048
:100E400030E025C0932D997FB92E8F36C1F018F46C
:100E5000883579F0AEC0803719F0883721F0A9C005
:100E6000E92FE061BE2EB4FE0DC0FB2DF460BF2E55
:100E700009C034FE0AC0292F2660B22E06C028E021
:100E800030E005C020E130E002C020E132E0F801AE
:100E9000B7FE07C060817181828193810C5F1F4F13
:100EA00006C06081718180E090E00E5F1F4FA3015A
:100EB000F1D0882E8618FB2DFF773F2E36FE0DC011
:100EC000232D2E7FA22E891458F434FE0BC032FC41
:100ED00009C0832D8E7EA82E05C0B82CA32C03C07C
:100EE000B82C01C0B92CA4FE0FC0FE01E80DF11D05
:100EF0008081803321F49A2D997EA92E09C0A2FE0B
:100F000006C0B394B39404C08A2D867809F0B394D4
:100F1000A3FC10C0A0FE06C0B21480F4280C922CD2
:100F20009B180DC0B21458F4B60180E290E076D060
:100F3000B394F8CFB21418F42B1802C0982C212CBB
:100F4000A4FE0FC0B60180E390E068D0A2FE16C0F8
:100F5000A1FC03C088E790E002C088E590E0B601FC
:100F60000CC08A2D867851F0A1FE02C08BE201C030
:100F700080E2A7FC8DE2B60190E050D0891430F4F5
:100F8000B60180E390E04AD09A94F8CF8A94F301B6
:100F9000E80DF11D8081B60190E040D08110F6CFC0
:100FA000222009F44ECEB60180E290E037D02A9498
:100FB000F7CFF6018681978102C08FEF9FEF2B96C6
:100FC0000FB6F894DEBF0FBECDBFDF91CF911F915A
:100FD0000F91FF90EF90DF90CF90BF90AF909F90D8
:100FE0008F907F906F905F904F903F902F900895DB
:100FF000FC010590615070400110D8F780959095E4
:101000008E0F9F1F0895FC016150704001900110E8
:10101000D8F7809590958E0F9F1F08950F931F937B
:10102000CF93DF93FB01238121FD03C08FEF9FEF5F
:101030002CC022FF16C0468157812481358142177A
:10104000530744F4A081B1819D012F5F3F4F31834D
:1010500020838C93268137812F5F3F4F37832683F0
:1010600014C08B01EC01FB010084F185E02D199582
:10107000892BE1F6D80116968D919C9117970196D0
:1010800017969C938E931697CE01DF91CF911F9167
:101090000F910895FA01AA27283051F1203181F1EA
:1010A000E8946F936E7F6E5F7F4F8F4F9F4FAF4F70
:1010B000B1E03ED0B4E03CD0670F781F891F9A1F83
:1010C000A11D680F791F8A1F911DA11D6A0F711D37
:1010D000811D911DA11D20D009F468943F912AE043
:1010E000269F11243019305D3193DEF6CF0108952B
:1010F000462F4770405D4193B3E00FD0C9F7F6CF5C
:10110000462F4F70405D4A3318F0495D31FD405223
:10111000419302D0A9F7EACFB4E0A69597958795B9
:1011200077956795BA95C9F7009761057105089598
:101130009B01AC010A2E0694579547953795279544
:10114000BA95C9F7620F731F841F951FA01D0895DC
:04115000F894FFCF41
:10115400433A2025642E2530326420543A202564F5
:101164002E2530326420483A2025642E25303264FE
:04117400000D0A0060
:00000001FF
