:1000000071C000008EC000008CC000008AC00000DB
:1000100088C00000F2C0000084C0000082C0000060
:1000200080C000007EC000007CC000007AC00000DC
:1000300078C0000076C0000074C0000072C00000EC
:1000400070C000006EC000006CC000006AC00000FC
:1000500068C0000066C0000064C0000062C000000C
:1000600060C000005EC000005CC000005AC000001C
:1000700058C0000056C0000054C0000052C000002C
:1000800050C000004EC000004CC000004AC000003C
:1000900048C0000046C0000044C0000042C000004C
:1000A00040C000003EC000003CC000003AC000005C
:1000B00038C0000036C0000034C0000032C000006C
:1000C00030C000002EC000002CC000002AC000007C
:1000D00028C0000026C0000024C0000022C000008C
:1000E00020C0000011241FBECFEFD1E2DEBFCDBF84
:1000F00000E00CBF12E0A0E0B2E0ECEEF2E000E0C5
:100100000BBF02C007900D92A239B107D9F722E0C8
:10011000A2E9B2E001C01D92A439B207E1F74CD0C8
:10012000E3C06ECFCF93DF93EC017CD061E6CE01CC
:1001300001967ED0CE0141969DD0CE014296BCD094
:10014000FE01EB5BFF4F10823196108231961082D8
:10015000C85BDF4F81E08883DF91CF910895CF9313
:10016000DF93EAE6F0E02081236020832DB3206155
:100170002DBB789424B1206224B9FC01E75BFF4FCA
:1001800060836623B1F0EC01619660E072E0CE011D
:1001900081D068E072E0CE017DD06BE172E0CE01EB
:1001A00079D06CE272E0CE0175D06FE372E0CE01DF
:1001B00071D0DF91CF910895CF93DF93CDB7DEB7A4
:1001C000CA54D1090FB6F894DEBF0FBECDBFCE0121
:1001D0000196A8DF61E0CE010196C1DFCE01439612
:1001E00082D080E090E0C65BDF4F0FB6F894DEBFB0
:1001F0000FBECDBFDF91CF9108951F920F920FB622
:100200000F9211248F939F9381E090E0909393023B
:10021000809392021CBA9F918F910F900FBE0F9006
:100220001F9018951092B90088E48093B800089543
:10023000FF920F931F93CF93DF931F92CDB7DEB73B
:100240008C01F62E0F96EEDFF801F486CE010196B2
:10025000E9DFF8018485982F990F958790E0880F42
:10026000991F816086870F90DF91CF911F910F9129
:10027000FF9008951092C50087E68093C40088E13E
:100280008093C10008958091C00085FFFCCF6093EA
:10029000C60008950F931F93CF93DF938C01EB015A
:1002A0006881662321F0C801EEDF2196F9CFDF9146
:1002B000CF911F910F910895FC0111AA1082118214
:1002C000128213821482158216821782108614B845
:1002D00080E48093800089E08093810010928900FF
:0C02E0001092880008950895F894FFCF54
:1002EC004D656E753A0D0A006F202D2041616265D7
:1002FC006E2076696E6475650D0A0063202D204CA6
:10030C00756B2076696E6475650D0A0068202D206A
:10031C0048616C767420616162656E740D0A006DC3
:10032C00202D2044656E6E65206D656E750D0A007E
:10033C003120003020000D0A0A4B6C617220746968
:10034C006C206EE6737465206B6F6D6D616E646FFF
:10035C000053656E646572204F0D0A0053656E6420
:10036C00657220430D0A0053656E64657220480D5A
:02037C000A0075
:00000001FF
