S00E000053656E6465722E73726563B5
S113000071C000008EC000008CC000008AC00000D7
S113001088C00000CAC0000084C0000082C0000084
S113002080C000007EC000007CC000007AC00000D8
S113003078C0000076C0000074C0000072C00000E8
S113004070C000006EC000006CC000006AC00000F8
S113005068C0000066C0000064C0000062C0000008
S113006060C000005EC000005CC000005AC0000018
S113007058C0000056C0000054C0000052C0000028
S113008050C000004EC000004CC000004AC0000038
S113009048C0000046C0000044C0000042C0000048
S11300A040C000003EC000003CC000003AC0000058
S11300B038C0000036C0000034C0000032C0000068
S11300C030C000002EC000002CC000002AC0000078
S11300D028C0000026C0000024C0000022C0000088
S11300E020C0000011241FBECFEFD1E2DEBFCDBF80
S11300F000E00CBF12E0A0E0B2E0ECE6F2E000E0C9
S11301000BBF02C007900D92A035B107D9F722E0CA
S1130110A0E5B2E001C01D92A235B207E1F702D01A
S1130120A3C06ECFCF93DF93CDB7DEB764970FB67E
S1130130F894DEBF0FBECDBFEAE6F0E080818360B5
S113014080838DB380618DBB7894CE01019642D0BB
S113015060E072E0CE0101964DD068E072E0CE011D
S1130160019648D06BE172E0CE01019643D06CE277
S113017072E0CE0101963ED06FE372E0CE010196AB
S113018039D0CE01029648D0CE01029663D0CE017A
S113019002965FD080E090E064960FB6F894DEBFDC
S11301A00FBECDBFDF91CF9108951F920F920FB66E
S11301B00F9211248F939F9381E090E090935102CA
S11301C0809350021CBA9F918F910F900FBE0F9095
S11301D01F9018951092C50087E68093C40088E1AB
S11301E08093C10008958091C00085FFFCCF609387
S11301F0C60008950F931F93CF93DF938C01EB01F7
S11302006881662321F0C801EEDF2196F9CFDF91E2
S1130210CF911F910F910895DC0151961C92519733
S11302201C9290E0983030F4FD01E90FF11D118229
S11302309F5FF8CF14B880E48093800089E08093B6
S11302408100109289001092880084B152968C9398
S11302500895089520E2FC01228B82E490E09093BB
S10F02608900809388000895F894FFCF73
S113026C4D656E753A0D0A006F202D204161626553
S113027C6E2076696E6475650D0A0063202D204C22
S113028C756B2076696E6475650D0A0068202D20E7
S113029C48616C767420616162656E740D0A006D40
S11302AC202D2044656E6E65206D656E750D0A00FB
S9030000FC
