S00E000053656E6465722E73726563B5
S113000073C000009FC000009DC000009BC00000A2
S113001099C0000061C1000095C0000093C00000B9
S113002091C000008FC000008DC000008BC0000094
S113003089C0000087C0000085C0000083C00000A4
S113004081C000007FC000007DC000007BC00000B4
S113005079C0000077C0000075C0000073C00000C4
S113006071C000006FC000006DC000006BC00000D4
S113007069C0000067C0000065C0000063C00000E4
S113008061C000005FC000005DC000005BC00000F4
S113009059C0000057C0000055C0000053C0000004
S11300A051C000004FC000004DC000004BC0000014
S11300B049C0000047C0000045C0000043C0000024
S11300C041C000003FC000003DC000003BC0000034
S11300D039C0000037C0000035C0000033C0000044
S11300E031C000008101870111241FBECFEFD1E28E
S11300F0DEBFCDBF00E00CBF14E0A0E0B2E0E4E35B
S1130100FBE000E00BBF02C007900D92AA35B107D7
S1130110D9F724E0AAE5B4E001C01D92AF38B207D4
S1130120E1F710E0C3E7D0E000E005C02197010942
S1130130802FFE010BD2C237D10780E00807B1F748
S113014036D0E7C45DCFEAE6F0E080818360808347
S11301508DB380618DBB789484B1806284B9089535
S11301600F931F93CF93DF93EC018B01019779F4E5
S11301706F3F7F4F61F48CE594E0F1D083E3ECE5CD
S1130180F4E0A0E0B2E001900D928A95E1F7CD2B66
S113019049F40F3F1F4F31F480E092E0F7D08CE533
S11301A094E0F4D0DF91CF911F910F910895CF93F4
S11301B0DF93CDB7DEB7C354D1090FB6F894DEBFD1
S11301C00FBECDBFCE010196BEDFEAE6F0E080812E
S11301D0836080838DB380618DBB789484B18062A9
S11301E084B9CE01029699D069EF73E0CE010296EC
S11301F0A4D061E074E0CE0102969FD064E174E083
S1130200CE0102969AD065E274E0CE01029695D0B2
S113021068E374E0CE01029690D0CE0103969FD09D
S11302201EAA1FAA18AE81E089AF2FEF83E294EFD4
S1130230215080409040E1F700C00000F12CCE0135
S11302400396A5D0811128C0AE014A5C5F4F6FE4CC
S1130250CE01039634D1F3941F92FF9289E494E083
S11302609F938F938E01065C1F4F1F930F9376D13C
S11302706CE474E0CE01029660D0B801CE0102961F
S11302805CD06EEF73E0CE01029657D00F900F90C2
S11302900F900F900F900F9080915A0490915B04EF
S11302A0019769F6CE01039675D0182F682FCE01F9
S11302B0039691D0113031F464E574E0CE010296D6
S11302C03CD005C067E574E0CE01029636D01092AA
S11302D05B0410925A04B3CF1F920F920FB60F9281
S11302E011248F939F9381E090E090935B0480931B
S11302F05A041CBA9F918F910F900FBE0F901F90BC
S113030018956FEF7FEF81E090E02ACF08956FEFAB
S11303107FEF80E090E024CF08951092C50087E637
S11303208093C40088E18093C10008958091C00047
S113033085FFFCCF6093C60008950F931F93CF935E
S1130340DF938C01EB016881662321F0C801EEDFA5
S11303502196F9CFDF91CF911F910F910895FC0160
S113036011AA1082118212821382148215821682BB
S11303701782108614B880E48093800089E080930B
S11303808100109289001092880008950895FC015C
S113039080810895FC0191A9903218F48081811123
S11303A003C0108280E00895DF01A90FB11D5196AA
S11303B08C919F5F91AB089580E284B982E490E0D0
S11303C09093890080938800089514B8109289004E
S11303D0109288000895CF93DF93EC01613051F4BB
S11303E0EBDF8FE99FE00197F1F700C00000CE0139
S11303F0ECDF07C0EADF8FE99FE00197F1F700C067
S11304000000DF91CF910895DC0190E09B3170F5FD
S1130410292F30E041E1429FF001439FF00D112468
S1130420E95CFD4F408146131FC088E08031B8F479
S1130430682F70E0FB013897EE0FFF1F91E1929F48
S1130440A001939F500D1124E40FF51FE95CFD4FAB
S11304509181FD01E60FF71F91838F5FE7CF81E064
S11304608C93D1961C9208959F5FD0CF0895BC01C0
S113047090E080E0903110F5282F30E0492F50E0D3
S1130480FB01E40FF51FE181E11102C0A1E001C00D
S1130490A0E0FB01E20FF31FA18B2F5F3F4FFB0195
S11304A0E40FF51F4181FB01E20FF31F21E041112D
S11304B001C020E0218B8E5F9F5FDCCF08950F93F6
S11304C01F93CF93DF93CDB7DEB728970FB6F89479
S11304D0DEBF0FBECDBF8C01DC018C9181112BC01E
S11304E088E0E1EFF3E0DE01119601900D928A9528
S11304F0E1F790E09430D8F4292F30E0F901EE0FC1
S1130500FF1FA1E0B0E0AC0FBD1FEA0FFB1F80810D
S1130510F801E20FF31F8183F9013496DA01A20F87
S1130520B31F8C91E00FF11F81839F5FE3CFC8015C
S11305306BDFC8019CDF28960FB6F894DEBF0FBEB0
S1130540CDBFDF91CF911F910F910895EE0FFF1F43
S1130550881F8BBF0790F691E02D19940F931F937A
S1130560CF93DF93CDB7DEB72E970FB6F894DEBFE7
S11305700FBECDBF0E891F8986E08C831A83098341
S11305808FEF9FE79E838D83AE01465E5F4F688D3C
S1130590798DCE01019610D0EF81F885E00FF11F1F
S11305A010822E960FB6F894DEBF0FBECDBFDF913A
S11305B0CF911F910F9108952F923F924F925F9286
S11305C06F927F928F929F92AF92BF92CF92DF925F
S11305D0EF92FF920F931F93CF93DF93CDB7DEB7C4
S11305E02B970FB6F894DEBF0FBECDBF6C017B0115
S11305F08A01FC0117821682838181FFBFC1CE016B
S113060001963C01F6019381F70193FD859193FFD7
S113061081917F01882309F4ADC1853239F493FDBA
S1130620859193FF81917F01853221F4B60190E099
S1130630D6D1E8CF912C212C312CFFE1F315D8F041
S11306408B3279F038F4803279F08332A1F4232D9F
S113065020611DC08D3261F0803369F4232D216047
S113066016C0832D8260382EE32DE4603E2E2AC00E
S1130670F32DF8601DC037FC2DC020ED280F2A3063
S113068040F08E32B9F436FC75C1232D2064322E2D
S113069019C036FE06C08AE0989E200D1124922EC1
S11306A011C0EAE02E9E200D1124222EF32DF062BB
S11306B03F2E08C08C3621F4832D8068382E02C06A
S11306C0883641F4F70193FD859193FF81917F0171
S11306D08111B3CF982F9F7D9554933028F40C5FEC
S11306E01F4F9FE399830DC0833631F0833771F038
S11306F0833509F055C020C0F801808189830E5FDD
S11307001F4F88248394912C530112C02801F2E0D6
S11307104F0E511CF801A080B18036FE03C0692D34
S113072070E002C06FEF7FEFC5014ED14C01820132
S1130730F32DFF773F2E15C0280122E0420E511CF5
S1130740F801A080B18036FE03C0692D70E002C0BC
S11307506FEF7FEFC5012DD14C01F32DF0683F2ED3
S1130760820133FC19C0822D90E088169906A0F40A
S1130770B60180E290E033D12A94F5CFF50137FC3D
S1130780859137FE81915F01B60190E028D1211057
S11307902A9421E0821A91088114910479F7E1C026
S11307A0843611F0893639F5F80137FE07C06081C7
S11307B07181828193810C5F1F4F08C060817181B8
S11307C0072E000C880B990B0E5F1F4FF32DFF763D
S11307D03F2E97FF09C090958095709561957F4F46
S11307E08F4F9F4FF0683F2E2AE030E0A30133D1B2
S11307F0882E861844C0853731F4232D2F7EB22EDF
S11308002AE030E025C0932D997FB92E8F36C1F0B0
S113081018F4883579F0AEC0803719F0883721F0A4
S1130820A9C0E92FE061BE2EB4FE0DC0FB2DF4601B
S1130830BF2E09C034FE0AC0292F2660B22E06C07E
S113084028E030E005C020E130E002C020E132E0E1
S1130850F801B7FE07C060817181828193810C5FCA
S11308601F4F06C06081718180E090E00E5F1F4FD2
S1130870A301F1D0882E8618FB2DFF773F2E36FE7C
S11308800DC0232D2E7FA22E891458F434FE0BC0E4
S113089032FC09C0832D8E7EA82E05C0B82CA32C53
S11308A003C0B82C01C0B92CA4FE0FC0FE01E80D92
S11308B0F11D8081803321F49A2D997EA92E09C0DF
S11308C0A2FE06C0B394B39404C08A2D867809F0BE
S11308D0B394A3FC10C0A0FE06C0B21480F4280C8C
S11308E0922C9B180DC0B21458F4B60180E290E02B
S11308F076D0B394F8CFB21418F42B1802C0982C05
S1130900212CA4FE0FC0B60180E390E068D0A2FEC3
S113091016C0A1FC03C088E790E002C088E590E01F
S1130920B6010CC08A2D867851F0A1FE02C08BE27C
S113093001C080E2A7FC8DE2B60190E050D089149A
S113094030F4B60180E390E04AD09A94F8CF8A94C8
S1130950F301E80DF11D8081B60190E040D08110D3
S1130960F6CF222009F44ECEB60180E290E037D0D3
S11309702A94F7CFF6018681978102C08FEF9FEF0B
S11309802B960FB6F894DEBF0FBECDBFDF91CF918B
S11309901F910F91FF90EF90DF90CF90BF90AF9099
S11309A09F908F907F906F905F904F903F902F908B
S11309B00895FC010590615070400110D8F78095AE
S11309C090958E0F9F1F0895FC0161507040019017
S11309D00110D8F7809590958E0F9F1F08950F935F
S11309E01F93CF93DF93FB01238121FD03C08FEF7E
S11309F09FEF2CC022FF16C0468157812481358188
S1130A004217530744F4A081B1819D012F5F3F4FEA
S1130A10318320838C93268137812F5F3F4F378327
S1130A20268314C08B01EC01FB010084F185E02DC9
S1130A301995892BE1F6D80116968D919C911797FB
S1130A40019617969C938E931697CE01DF91CF91C2
S1130A501F910F910895FA01AA27283051F12031EE
S1130A6081F1E8946F936E7F6E5F7F4F8F4F9F4F3E
S1130A70AF4FB1E03ED0B4E03CD0670F781F891F80
S1130A809A1FA11D680F791F8A1F911DA11D6A0F4E
S1130A90711D811D911DA11D20D009F468943F9101
S1130AA02AE0269F11243019305D3193DEF6CF0100
S1130AB00895462F4770405D4193B3E00FD0C9F7C6
S1130AC0F6CF462F4F70405D4A3318F0495D31FD33
S1130AD04052419302D0A9F7EACFB4E0A695979586
S1130AE0879577956795BA95C9F70097610571055C
S1130AF008959B01AC010A2E0694579547953795A6
S1130B002795BA95C9F7620F731F841F951FA01DFF
S1130B10089510E0C3E7D0E000E005C0802FFE0197
S1130B2015DD2196011DC437D10780E00807B1F710
S1070B30F894FFCF63
S1130B3400000000000000000000000000000000AD
S1130B44000000000000000000000000000000009D
S1130B54000000000000000000000000000000008D
S1130B64000000000000014100000100000000003A
S1130B740000000000000100420000010000000029
S1130B840000000000010000004300000100000018
S1130B940000000000000100010044000001000006
S1130BA400000000000100000000004500000100F6
S1130BB400000000000001000000010046000001E4
S1130BC400000000000000010001000000470000D4
S1130BD401000000000000000100010001004800C1
S1130BE400010000000000010000000000000049B2
S1130BF400000100000000000100000000000100EA
S1130C044A0000010000000000010000000100008F
S1130C14004B00000100000000000100000001007E
S1130C2401004C000001000000000001000100006C
S1130C340000004D0000010000000000010001005C
S1130C44000001004E00000100000000000100014A
S1130C5400010000004F000001000000000001003A
S1130C640100010001005000000100000001000027
S1130C740000000000000051000001000000010019
S1130C840000000000000100520000010000000107
S1130C9400000000000100000053000001000000F7
S1130CA401000000000001000100540000010000E4
S1130CB400010000000100000000005500000100D4
S1130CC400000100000001000000010056000001C2
S1130CD400000001000000010001000000570000B2
S1130CE4010000000100000001000100010058009F
S1130CF40001000000010001000000000000005990
S1130D0400000100000001000100000000000100D7
S1130D145A0000010000000100010000000100006D
S1130D240001000100010000004D656E753A0D0AD2
S1130D34006F202D20416162656E2076696E6475B2
S1130D44650D0A0063202D204C756B2076696E6452
S1130D5475650D0A0068202D2048616C7674206145
S1130D646162656E740D0A006D202D2044656E6EFB
S1130D7465206D656E750D0A0025690053656E6402
S10D0D84743A2000312000302000F2
S9030000FC
