S00E000053656E6465722E73726563B5
S113000071C000008EC000008CC000008AC00000D7
S113001088C0000053C1000084C0000082C00000FA
S113002080C000007EC000007CC000007AC00000D8
S113003078C0000076C0000074C0000072C00000E8
S113004070C000006EC000006CC000006AC00000F8
S113005068C0000066C0000064C0000062C0000008
S113006060C000005EC000005CC000005AC0000018
S113007058C0000056C0000054C0000052C0000028
S113008050C000004EC000004CC000004AC0000038
S113009048C0000046C0000044C0000042C0000048
S11300A040C000003EC000003CC000003AC0000058
S11300B038C0000036C0000034C0000032C0000068
S11300C030C000002EC000002CC000002AC0000078
S11300D028C0000026C0000024C0000022C0000088
S11300E020C0000011241FBECFEFD1E2DEBFCDBF80
S11300F000E00CBF14E0A0E0B2E0E2EAF4E000E0CB
S11301000BBF02C007900D92A435B107D9F724E0C4
S1130110A4E5B4E001C01D92A635B207E1F702D010
S1130120BEC16ECFCF93DF93CDB7DEB768970FB65E
S1130130F894DEBF0FBECDBFEAE6F0E080818360B5
S113014080838DB380618DBB7894CE010196CBD032
S113015062EC73E0CE010196D6D06AEC73E0CE0176
S11301600196D1D06DED73E0CE010196CCD06EEE48
S113017073E0CE010196C7D061E074E0CE01019630
S1130180C2D0CE010296D8D01D8A1E8A1F8A81E071
S1130190888FCE010296E7D0811153C062E174E0EA
S11301A0CE010196B0D0CE010196BFD0883619F1A8
S11301B018F4833699F045C08D3651F18F3609F025
S11301C040C06DE274E0CE0101969DD0AE014B5E5D
S11301D05F4F6FE4CE0102961DD133C068E374E033
S11301E0CE01019690D0AE014B5E5F4F63E4CE0129
S11301F0029610D126C063E474E0CE01019683D048
S1130200AE014B5E5F4F68E4CE01029603D119C084
S113021062EC73E0CE01019676D06AEC73E0CE0115
S1130220019671D06DED73E0CE0101966CD06EEE47
S113023073E0CE01019667D061E074E0CE010196CF
S113024062D08091540490915504019709F0A1CF94
S1130250CE0102968BD094B1906294B995B190621C
S113026095B9823011F1813091F46EE474E0CE01DD
S1130270019649D0CE0102968BD08FE99FE0019779
S1130280F1F700C00000CE0102968BD00EC061E5EC
S113029074E0CE01019637D0CE01029682D08FE968
S11302A09FE00197F1F700C0000084B184B985B1E3
S11302B085B910925504109254046BCF1F920F927B
S11302C00FB60F9211248F939F9381E090E0909347
S11302D05504809354041CBA9F918F910F900FBEC4
S11302E00F901F9018951092C50087E68093C40064
S11302F088E18093C10008958091C00085FFFCCF00
S11303006093C60008950F931F93CF93DF938C01DE
S1130310EB016881662321F0C801EEDF2196F9CF55
S1130320DF91CF911F910F9108958091C000882390
S1130330E4F78091C6000895FC01118A10821182AD
S1130340128213821482158216821782108614B8C0
S113035080E48093800089E080938100109289007A
S1130360109288000895FC0180810895FC01918910
S1130370903118F48081811103C0108282E00895C5
S1130380DF01A90FB11D11968C919F5F918B089588
S113039080E284B982E490E090938900809388009D
S11303A0089514B810928900109288000895DC0111
S11303B090E09C3170F5292F30E041E1429FF0013B
S11303C0439FF00D1124E050FE4F408146131FC09F
S11303D088E08031B8F4682F70E0FB013897EE0FA5
S11303E0FF1F91E1929FA001939F500D1124E40FF0
S11303F0F51FE050FE4F9181FD01E60FF71F918339
S11304008F5FE7CF81E08C9351961C9208959F5F94
S1130410D0CF08950F931F93CF93DF93CDB7DEB75B
S113042028970FB6F894DEBF0FBECDBF8C01DC0158
S11304308C91811129C088E0EAEBF3E0DE0111968A
S113044001900D928A95E1F790E09430D8F4292F29
S113045030E0F901EE0FFF1FA1E0B0E0AC0FBD1FCB
S1130460EA0FFB1F8081F801E20FF31F8183F9017A
S11304703496DA01A20FB31F8C91E00FF11F818330
S11304809F5FE3CFC80193DF28960FB6F894DEBFD1
S11304900FBECDBFDF91CF911F910F910895F894B6
S10504A0FFCF88
S11304A24100000100000000000000000000000103
S11304B200420000010000000000000000000100F2
S11304C200004300000100000000000000000001E1
S11304D200010044000001000000000000000100CF
S11304E200000000450000010000000000000001BF
S11304F200000001004600000100000000000000AE
S1130502010001000000470000010000000000009B
S11305120001000100010048000001000000000089
S1130522010000000000000049000001000000007A
S11305320001000000000001004A00000100000068
S1130542000001000000010000004B000001000057
S113055200000001000000010001004C0000010045
S11305620000000001000100000000004D00000135
S1130572000000000001000100000001004E000024
S113058201000000000001000100010000004F0012
S11305920001000000000001000100010001005000
S11305A20000010000000100000000000000000043
S11305B251000001000000010000000000000001E1
S11305C200520000010000000100000000000100D0
S11305D200005300000100000001000000000001BF
S11305E200010054000001000000010000000100AD
S11305F2000000005500000100000001000000019D
S1130602000000010056000001000000010000008B
S11306120100010000005700000100000001000079
S11306220001000100010058000001000000010067
S11306320100000000000000590000010000000158
S11306420001000000000001005A00000100000047
S1130652010001000000010000000100010001008E
S113066200004D656E753A0D0A006F202D20416120
S113067262656E2076696E6475650D0A0063202DCD
S1130682204C756B2076696E6475650D0A006820CE
S11306922D2048616C767420616162656E740D0A66
S11306A2006D202D2044656E6E65206D656E750D9E
S11306B20A000D0A0A4B6C61722074696C206EE6A2
S11306C2737465206B6F6D6D616E646F0053656E3C
S11306D2646572204F0D0A0053656E64657220438F
S11306E20D0A0053656E64657220480D0A003120BC
S10706F200302000B0
S9030000FC
